:100000000C94A0020C947C1F0C94BD020C94BD02B5
:100010000C94BD020C94BD020C94BD020C94BD0264
:100020000C94BD020C94BD020C947B250C944E26BE
:100030000C94011E0C94BD020C94BD020C94BD02E4
:100040000C94BD020C94BD020C94BD020C94BD0234
:100050000C94BD020C949E1E0C94BD020C94BD0227
:100060000C94BD020C94BD020C94BD020C94BD0214
:100070000C94BD020C94BD020C94BD020C94BD0204
:100080000C94BD020C94BD020C94BD020C94BD02F4
:100090000C94BD020C94BD020C94BD020C94BD02E4
:1000A0000C94BD020C94BD020C94BD0214001A0005
:1000B00008001500170004211622072409280A0049
:1000C0001D001B00060019000500000000002B00A9
:1000D000215221521C0018000C00120013000B00CA
:1000E0000D280E240F223321110010003600370096
:1000F00038002C002C002252000000001E001F00BF
:100100002000210022000100010029002A002F0008
:100110002D002E0035004C002602000000000100DA
:1001200001000100230024002500260027003000E4
:10013000310034000100010027020100010001002C
:100140002800010001000100000000003A003B000F
:100150003C003D003E0001000100010001000100E3
:100160000100010001000100010000000000010089
:10017000010001000100A900AA00A800010001007F
:100180005000520051004F000100AC00AE00AB0027
:100190000100010001000100000000000100010059
:1001A0000100010001000100010001000100010047
:1001B0000100010001000100010000000000010039
:1001C0000100010001000100010001000100010027
:1001D0000100010001000100010001000100010017
:1001E00001000100010001000000000044454255EB
:1001F000473A2064697361626C65642E0A00444565
:100200004255473A20656E61626C65642E0A006C47
:1002100065645F7461736B3A20253032580A004F71
:100220006E6573686F743A206163746976653A200D
:1002300025640A000A0025303862003A2000253083
:100240003258000A722F632030313233343536375A
:100250000A0054617267657420636F6E6E65637423
:1002600065640D0A00546172676574206469736384
:100270006F6E6E65637465642C207468726F74743D
:100280006C696E6720636F6E6E656374696F6E2054
:10029000617474656D7074730D0A004661696C65F4
:1002A0006420746F20657865637574652025730A12
:1002B00000290A002575002F002575005D280025FE
:1002C00064002000256400200025640020002564CF
:1002D000007C0025303258006D6F7573656B657951
:1002E000205B62746E7C782079207620685D2872AD
:1002F00065702F61636C293A205B000A002530325B
:100300005820006E6B726F5F7265706F72743A2066
:1003100025303258207C20000A0025303258200039
:100320006B6579626F6172645F7265706F72743A47
:100330002025303258207C200064656C5F6B657925
:100340005F6269743A2063616E27742064656C3A59
:1003500020253032580A006164645F6B65795F6202
:1003600069743A2063616E2774206164643A2025C1
:100370003032580A0073757370656E64696E672059
:100380006B6579626F6172640D0A005B575D005B9B
:10039000535D005B525D005B445D005B435D001894
:1003A0000373006B0065006C006C007900790065D8
:1003B0000075006D00650000000C03790065007594
:1003C000006D0065000000040309040902540003E5
:1003D0000100A0FA09040000010301010009211134
:1003E00001000122440007058103080001090401FE
:1003F00000010300000009211101000122B60007DD
:100400000582032000010904020001030000000925
:1004100021110100012215000705830320000112AC
:10042000010002000000084D4436350300010200BF
:10043000010631FF0974A1010975150026FF009519
:100440002075088102C005010902A1018502090188
:10045000A100050919012908150025019508750154
:1004600081020501093009311581257F9502750842
:10047000810609381581257F950175088106050CCF
:100480000A38021581257F950175088106C0C005CF
:10049000010980A101850319012AB700150126B7BA
:1004A00000950175108100C0050C0901A1018504AA
:1004B00019012AA002150126A002950175108100DC
:1004C000C005010906A1018506050719E029E71500
:1004D0000025019508750181020507190029EF150E
:1004E00000250195F075018102050819012905957E
:1004F0000575019102950175039101C00501090679
:10050000A101050719E029E71500250195087501E6
:1005100081029501750881010507190029FF150061
:1005200026FF0095067508810005081901290515A3
:10053000002501950575019102950175039101C092
:1005400011241FBECFEFDAE0DEBFCDBF11E0A0E087
:10055000B1E0E6E6F2E502C005900D92A43EB107D7
:10056000D9F723E0A4EEB1E001C01D92A732B20793
:10057000E1F70E9462160C94DF280C940000FF93B0
:10058000EF93E091E401F091E501309709F00995CE
:10059000EF91FF910895FC018591803011F0EFDF1C
:1005A000FBCF0895FF27E0E230E247FF0CC0419502
:1005B00097FF09C0EDE26095709580959095611D5B
:1005C000711D811D911D27FF02C0219530E350E26E
:1005D000AA27660F771F881F991FAA1FA41710F05C
:1005E000A41B63955A95A9F7AA3008F0A95FA05DEE
:1005F000AF93F395611571058105910541F7ED32D2
:1006000011F4EF93F395F21718F43F93F395FBCFA2
:100610008F91B5DFFA95E1F70895E991F991859108
:10062000803021F0853219F0AADFF9CF089520E05B
:10063000E89455915532C1F3503311F468945591B3
:100640005A3348F4505390F3220F022E220F220FF8
:10065000200D250FF4CF0EF42195899199915336F1
:1006600019F3533729F1533559F1BC0188279927DC
:10067000E8945C3621F489919991689455915436A7
:1006800039F446EF7EF077FF0DC08FEF9FEF0AC081
:1006900055374AE039F0583540E121F0523642E012
:1006A00009F00895FF93EF937DDFEF91FF91B7CFAE
:1006B000FF93EF93FC0181918030B9F360DFFBCFB2
:1006C000FF93EF9368DFF1CFDF93CF93CDB7DEB722
:1006D0002596A3DFCF91DF9108958430B8F4683078
:1006E000A8F4453098F4E42FF0E095E0699FE00D20
:1006F000F11D112498E2899FE00DF11D1124EE0FE8
:10070000FF1FE455FF4F85919491089581E090E09B
:1007100008950E946D03089581E008950E948C035E
:10072000089581E0089581E008950E94930308955B
:1007300008950E9498030895A6E0B0E0E2EAF3E08D
:100740000C943B2849835A839E833091EB01898125
:100750009A8131111AC03E81311599F0211589F025
:100760000E947609182F682F89819A810E94520968
:1007700069817A81812F0E947A102696E3E00C9499
:1007800057280E946409182FF3CF0E9476096981C7
:100790007A81F1CFFC01262F4081518162817381E2
:1007A000848195810E949C030895CF93DF93D82F75
:1007B000C92F61E00E94CA036D2F7C2F0E948E0317
:1007C000DF91CF910895CF93DF93D82FC92F60E0A9
:1007D0000E94CA036D2F7C2F0E949903DF91CF9155
:1007E000089581E008950E94F1030895CF93C82FE2
:1007F0000E941E088C2F0E94F3032FEF84E39CE0DD
:10080000215080409040E1F700C00000CF91089552
:1008100081E00E94F6030E94C21E089580E00E94BB
:10082000F6030E94D31E08950F931F93CF93DF9377
:100830008C0161E00E94CA03EC01B8010E9495039B
:100840008115D1F1B801CE010E94291B8115A1F1BA
:10085000B801CE010E94E416811571F1B801CE01F4
:100860000E94B916811541F1F8018581811581F049
:10087000C330FCE7DF07E1F178F4C130ECE7DE07D5
:10088000C9F1C230FCE7DF07E9F0C115DC4791F0A0
:10089000C8010E94910311C0CB35ECE7DE0781F15E
:1008A000CC35FCE7DF0749F1CA35DC4789F70E9400
:1008B000C10DEECF0E94080480E0DF91CF911F911F
:1008C0000F9108959091AC02892F8E7F90FF8160E7
:1008D0008093AC0280FF09C08EEF91E09F938F93CD
:1008E0000E9464030F900F90E7CF8CEE91E0F6CF5B
:1008F0000E94C90D0E940E04DFCF0E94B80DC8CF20
:100900000E94C50DC5CF0E94DE1D0E94B30408954C
:100910000E94B7040E94E31D08958295982F990FB5
:10092000990F9C7C869586958373982B892F880FC9
:100930008A7A96959575892B089581E00895089592
:10094000CF93DF93D82F0E949D04C82F811519F0F3
:100950008D2F0E949F048C2FDF91CF9108950895D1
:100960000E94A004089580E00E94B00408950E94AF
:10097000701B0E94B0040895CF930E94701BC82F73
:100980008091E6018C1701F1C093E6010E946D1E73
:100990006093E7017093E8018093E9019093EA0185
:1009A0008091AC028570853061F41F92CF938FE007
:1009B00092E09F938F930E9464030F900F900F908B
:1009C0000F908C2F0E94B004CF910895ADE0B0E05D
:1009D000ECEEF4E00C943C28488759876A877B87C3
:1009E0008C879D8791110E94B10C1F8286E0FE01C9
:1009F0003896DE01119601900D928A95E1F78D816E
:100A000081110DC029813A814B815C816D817E818C
:100A10008F810E94FB0B2D96E2E00C945828CE01AA
:100A200001960E94D5038111EDCFF5CFFC018481A1
:100A3000813021F4808191810E94A8090895611577
:100A400029F00E944A180E940B1908950E949318D9
:100A5000FACFCF93C82F811599F08CEF8C0F813A84
:100A600088F48C2F0E949E1C811529F08C2F0E94E7
:100A7000621D0E94470D8C2F0E944B1D0E94470D46
:100A8000CF91089580E28C0F883048F4C77081E0E0
:100A900001C0880FCA95EAF70E94920CEFCF8BE550
:100AA0008C0F833038F42C2F2452330BC9010E9451
:100AB000301CE6CFE8E5EC0FEB3150F4F0E0EE0F40
:100AC000FF1FE85CFE4F808191810E94561CD8CFA9
:100AD00083E38C0F8331A0F661E08C2F0E941F0509
:100AE000CFCF811581F19CEF980F913A28F40E94A5
:100AF000621D0E94470D089590E2980F983050F4BF
:100B0000877091E001C0990F8A95EAF7892F0E94BA
:100B1000980CEFCF9BE5980F933028F480E090E09D
:100B20000E94301C089598E5980F9B3128F480E0CE
:100B300090E00E94561C089593E3980F933118F4A7
:100B400060E00E941F0508950F931F93CF93C82F55
:100B50008B010E9429050115110539F48C2F0E9483
:100B60007105CF911F910F9108958FE99FE0019733
:100B7000F1F700C0000001501109EDCF60E570E011
:100B8000893311F060E070E00E94A405089581159A
:100B900021F00E94920C0E94470D0895811521F0CA
:100BA0000E94980C0E94470D0895A0E0B0E0EBED84
:100BB000F5E00C9436286C01D62FC72FFC01158167
:100BC000068102950F700E94870CE82E8115F9F0BE
:100BD000E12E1115E1F08C2F807F803461F080E2EE
:100BE0008D0F8830F0F08C2F807E803221F4D2304F
:100BF000C0F00115B1F08091FF0282FF12C082E0C7
:100C00000E94780D0E94870C91E0E82EE926EC2FD7
:100C1000E295EF70C03CB0F5F0E0EF51F74D0C9469
:100C20002628E12CF4CF0C2F0F70C03110F0029564
:100C3000007F111599F0011559F080E28D0F883071
:100C400010F0D11107C0802F0E94920C0E94470D16
:100C50008D2F51C0802F0E94A30CF8CF8D2F0E94A2
:100C60007105011579F080E28D0F883010F0D111F7
:100C700004C0802F0E94980C03C0802F0E94A90CF2
:100C80000E94470DE11489F00E94830C80FD0DC085
:100C9000F60115820E947D0C0E94B008C6010E94D8
:100CA000E5070E947D0C0E94C008CDB7DEB7E8E0E2
:100CB0000C945228FC2FFF70FF2EC07FC03219F019
:100CC000F29480EFF822D11541F0D130D1F1111515
:100CD00009F444C00115F1F0BBCF8091FF0282FD01
:100CE00015C0111559F0F11429F08F2D0E94920CA6
:100CF0000E94470D80E00E942905C4CF80E00E9439
:100D00007105F11409F4BECF8F2DB4CF111569F020
:100D1000011104C08F2D0E94C705B4CF013009F026
:100D2000B1CF8F2D0E94C90CADCF0111ABCF8F2D4C
:100D30000E94CE058F2D0E94D50C8F2D0E94B80CDD
:100D4000A1CF111521F0063008F09CCFE3CF05307C
:100D500008F098CF8F2D0E94CE0594CF0115D1F3C6
:100D6000D93349F42FEF87EE93E021508040904033
:100D7000E1F700C000008D2F0E94710583CF8C2FFA
:100D8000869586958370811569F0813009F07ACF58
:100D90008D2F9C2F9370111102C080E090E00E9473
:100DA000561C70CF8D2F9C2F9370111102C080E0C4
:100DB00090E00E94301C66CF612F8D2F0E941F058E
:100DC00061CF8C2F8370811139C0111129C04D2F33
:100DD000429546954770440F440F2D2F2F7030E0F9
:100DE000042E02C0220F331F0A94E2F780E090E045
:100DF000D4FF09C08FE090E002C0880F991F4A9588
:100E0000E2F780959095C695C695C370822B932B7B
:100E1000C23071F0C33079F0C13039F00E948008DF
:100E20000E94701B0E94B0042DCF0E947708F8CF5B
:100E30000E948908F5CF0E947408F2CF111561F164
:100E4000C0FFEECF4D2F429546954770440F440F9B
:100E50002D2F2F7030E0042E02C0220F331F0A9472
:100E6000E2F780E090E0D4FF09C08FE090E002C09C
:100E7000880F991F4A95E2F780959095C695C6957B
:100E8000C370822B932BC23069F0C33071F0C13034
:100E900031F00E94EB08C4CF823010F2D3CF0E9411
:100EA000E208BECF0E94F408BBCF0E949808B8CFDA
:100EB000CF70111539F08C2F0E94B0088D2F0E9431
:100EC000C705AECF8D2F0E94CE058C2F0E94C00883
:100ED000A7CFD23F41F170F4D03FC9F0D13F91F09C
:100EE000111509F446C0011509F440C08D2F0E9468
:100EF000290596CFD33FF1F0D43F91F78091FF02BF
:100F000082FD22C08C2F8F71111501F310C01115B5
:100F100041F0053008F084CF8C2F8F710E94D208E9
:100F20007FCF0630F7CF8C2F8F711111CFCF0E945A
:100F3000B00876CF111529F08C2F8F710E94A4086C
:100F40006FCF0E949F086CCF111531F063E08C2F9A
:100F50008F710E94590D64CF81E00E94780D02309C
:100F600008F45ECF82E00E94780D5ACF8C2F8F71EB
:100F7000DECF011579F0D93349F4EFEFF7EE23E036
:100F8000E150F0402040E1F700C000008D2F0E94AA
:100F9000710546CF8C2F8F7199CF0F931F93CF93ED
:100FA000DF93EC01688179818D810E94B5098C0104
:100FB0000E94FD080E947308B801CE010E94D50569
:100FC000DF91CF911F910F910895CF93DF93EC01A3
:100FD0008C81811599F0CE010E941404811111C0F9
:100FE0000E94870C811551F08D81811539F0809117
:100FF000FF0282FF03C082E00E94780DDF91CF9153
:101000000895CE010E94CD07CE010E94E303F6CFE2
:1010100080E090E00E94301C80E090E00E94561C2E
:101020000E94B10C0E94470D0E94C2190E940B1928
:1010300008950E94791D0E94080808950E94A00C3E
:101040000E9419080895282F92959F70963099F064
:1010500060F4925F9F70923030F4203FB1F038F42A
:1010600081E0283E38F080E008959A5FF3CF81E078
:10107000243FC9F7089591E0813F09F090E081E0B5
:10108000283E08F080E0892B089581E00895FC0156
:101090008481811539F0808191810E94A8090E9484
:1010A0002308089580E00895A6E0B0E0EAE5F8E0BE
:1010B0000C943C282696E2E00C945828A7E0B0E077
:1010C000E4E6F8E00C943C282796E2E00C945828DB
:1010D00008950E94680808950E9469089093030289
:1010E00080930202089508950E946C08089520914B
:1010F000020230910302822B932B0E946C08089508
:101100002091020230910302822393230E946C08F3
:1011100008952091020230910302822793270E94B2
:101120006C0808950E94680808950E949208089526
:101130000E9495089093010280930002089580E038
:1011400090E00E949808089521E030E0A90102C0D3
:10115000440F551F8A95E2F7CA010E949808089526
:1011600021E030E002C0220F331F8A95E2F7809120
:10117000000290910102822B932B0E9498080895FF
:1011800021E030E002C0220F331F8A95E2F720955C
:1011900030958091000290910102822393230E9456
:1011A0009808089521E030E002C0220F331F8A958D
:1011B000E2F78091000290910102822793270E941A
:1011C000980808952091000230910102822B932B00
:1011D0000E94980808952091000230910102822314
:1011E00093230E94980808952091000230910102F3
:1011F000822793270E949808089508959B0167709D
:1012000091E001C0990F6A95EAF763E0369527955A
:101210006A95E1F7220F331F220F331FFA01E20F05
:10122000F31F40E050E0682F70E08191DF019B01E7
:10123000042E02C0369527950A94E2F72170219575
:101240002827292328272E934F5F5F4F44305105CD
:1012500061F708959C01982F977083E03695279544
:101260008A95E1F7220F331F220F331FFB01E20F94
:10127000F31F40E050E080E0219130E0092E02C0F1
:10128000369527950A94E2F721703327042E01C082
:10129000220F0A94EAF7822B4F5F5F4F44305105CB
:1012A00059F70895282F862F983068F4253058F480
:1012B000622F70E025E0929F600D711D11244CEEAD
:1012C00051E00E94FE080895292F983068F4853077
:1012D00058F490E06CEE71E035E0239F800D911D95
:1012E00011240E942A09089580E00895A0E0B0E04A
:1012F000ECE7F9E00C9435288C01E0900002F090C6
:1013000001028091020290910302E82AF92ACFE0BB
:10131000D0E0CC24C394D12CC6010C2E02C0880F7F
:10132000991F0A94E2F78E219F21892B49F4219776
:1013300098F7B12C8B2DCDB7DEB7E9E00C9451288E
:10134000BC2EB8018C2F0E948610019781F3F2CF3A
:10135000CF93DF93D82FC92F0E9476096D2F7C2F52
:101360000E948610DF91CF9108951F93CF93DF9352
:10137000162FD72F9091EB01911541F0862F972FC3
:101380000E94A809DF91CF911F910895811581F0E6
:10139000862F972F0E947609C82F682F812F9D2FA7
:1013A0000E945209612F7D2F8C2F0E948610EACF58
:1013B000862F972F0E946409C82FF4CF0F931F9395
:1013C000CF93E0910402C7E0809105028E1304C020
:1013D000CF911F910F9108950E2F10E0CE9FF00135
:1013E0001124EA5FFD4F2081318142815381648164
:1013F000758186810E945E08F8013196E770E4CF1E
:1014000020913E0230913F024091400250914102B2
:101410006091420270914302809144020E945E08F2
:10142000089580914402803178F4809143028115BF
:1014300059F0E09104022091050230913F02409161
:101440003E0257E02E1301C008956E2F70E05E9F9C
:10145000F0011124DF01AA5FBD4F14968C911497FF
:10146000811561F111968C911197831327C08C918E
:10147000841324C015968C91159781111FC0129664
:101480008D919C91A0914002B09141028A1B9B0BCF
:10149000883C910598F4809144028F70806180931C
:1014A0004402E45FFD4F80818F70806180838EE312
:1014B00092E00E94E5070E94DE090895FB01319643
:1014C000E770C0CFE09104029091050227E0E91394
:1014D00002C080E00895AE2FB0E02E9FF0011124ED
:1014E000EA5FFD4F3181361306C03081381303C0E7
:1014F0003581341304C0FD013196E770E8CF81E0F7
:1015000008958F929F92AF92BF92DF92EF92FF92D7
:101510000F931F93CF93DF93CDB7DEB72D970FB601
:10152000F894DEBF0FBECDBF8C0186E0F801DE016E
:10153000189601900D928A95E1F7F801F580848163
:101540009EE3892E92E0992E9091420291111BC048
:10155000811509F4FFC0F11409F440C1C8010E94CB
:101560004708811509F43AC187E0F801D4010190D8
:101570000D928A95E1F7C4010E9416050E94110A96
:101580000E94000AE7C0E080A280B380D0904302AE
:101590002091400230914102A501421B530BD1140E
:1015A00009F4DBC0483C510508F0A6C0811509F4D8
:1015B000D1C090913F02918080914402803108F027
:1015C0006BC0991228C090913E029E1124C0F11068
:1015D0005DC08F708061809344020E94000A8EE398
:1015E00092E00E94E50780914402F8018683F12C85
:1015F0008F2D2D960FB6F894DEBF0FBECDBFDF91B5
:10160000CF911F910F91FF90EF90DF90BF90AF901F
:101610009F908F900895F11039C040E0692D8E2D74
:101620000E94620A40E0692D8E2D0E94620AF82E07
:101630008111DDCF888599850E94A809292F2295DF
:101640002F70903450F49F70223080F0911599F0F3
:10165000F8019681903178F4CBCF2A5F2F70223039
:1016600078F0C8010E94E507FD2CC2CF911519F052
:10167000811509F4BDCF805E883008F4B9CFF1CF71
:10168000803F08F4B5CF815F8330F7CF809144026B
:10169000816080934402ABCF991207C090913E02C3
:1016A0009E1103C0F11409F479C0C8010E944708D3
:1016B000811509F493C0F11409F490C0809144029B
:1016C000803288F020913E0230913F023A83298394
:1016D000BC82AB82909142029D831E828F83CE0199
:1016E00001960E94E50787E0F801AEE3B2E00190C1
:1016F0000D928A95E1F742CF909144029031A0F487
:10170000488559856A857B858C859D850E9454080E
:101710008EE392E00E94E50787E0F40111928A953A
:10172000E9F70E94000A63CF8115A1F020913F02E2
:1017300081812813BACF80913E028E11B6CFF1106D
:10174000B4CF9683C8010E94E50787E0F4011192A7
:101750008A95E9F7FF24F3944BCF483C510508F0F4
:1017600041C08115B9F3F114C9F190913F02818113
:1017700098132AC080913E028E1126C080914402A7
:1017800080FD19C08031B8F08683807F803F39F0BA
:101790008681982F907F905F8F70892B8683C801F8
:1017A0000E94E50787E0F801AEE3B2E001900D92F8
:1017B0008A95E1F7E5CE87E0F801AEE3B2E001906B
:1017C0000D928A95E1F7C6CFC8010E9447088111A2
:1017D0008ACF80914402816080934402C8010E94B4
:1017E000E507B8CF488559856A857B858C859D85B9
:1017F0000E94540891CFAEE0B0E0E1E0FCE00C9430
:101800003B28288739874A875B876C877D878E8747
:10181000CE0108960E94810A6C858115A9F0611598
:1018200041F0288539854A855B857D858E850E94B6
:101830005E0817E0809104029091050289133AC076
:101840002E96E3E00C94572887E0FE013896DE01DF
:10185000119601900D928A95E1F7611551F3A091CF
:1018600005028A2F90E00196877099272091040243
:101870002817190689F097E09A9FD0011124AA5FD2
:10188000BD4FFE01319601900D929A95E1F780933C
:1018900005020E94DE09CDCF0E941E0810920502AB
:1018A0001092040287E0EEE3F2E0DF011D928A95D8
:1018B000E9F7BFCF189FC00111248A5F9D4F0E9496
:1018C000810A811509F4BCCFE09104021E9FF0014A
:1018D0001124EA5FFD4F208131814281538164816F
:1018E000758186810E945E088091040290E00196D5
:1018F00087709927809304029DCF80916D02869511
:1019000086958695089580916D02877008959091CF
:101910006D02977081E0911101C080E0089580917F
:101920009902089590919902982B909399020895A5
:10193000982F909580919902892380939902089518
:1019400010929902089590919802982B9093980282
:101950000895982F909580919802892380939802FA
:10196000089510929802089508950E94B40C089565
:1019700090916E02292F2823211531F0809589231B
:1019800080936E020E94B50C089508950E94C50CC4
:10199000089590916F02292F2823281729F0982B5A
:1019A00090936F020E94C60C089590916F02292FA8
:1019B0002823211531F08095892380936F020E949E
:1019C000C60C089580916F02811529F010926F0264
:1019D00080E00E94C60C0895CF93C0919902809137
:1019E0009802C82B80916F02811531F0C82B0E949C
:1019F0007C1C81110E94E20C8C2FCF910895CF9313
:101A0000DF93C0910201D09103010E94EC0C888306
:101A1000C0910201D091030148E050E065E672E018
:101A2000CE010E947728892B59F088E0FE01A5E6B7
:101A3000B2E001900D928A95E1F7CE010E94841BDD
:101A4000DF91CF910895CF93DF93C0910001D091A2
:101A500001010E94EC0C8983C0910001D091010129
:101A600040E250E065E472E0CE010E947728892BC5
:101A700059F080E2FE01A5E4B2E001900D928A9552
:101A8000E1F7CE010E94D11BDF91CF9108958091A3
:101A90003701811539F08091FE0287FF03C00E9453
:101AA000230D08950E94FF0C089508950E94550D7E
:101AB0000895962F2091FF0222FF11C0682F660F14
:101AC000660F660F692B60936D020E94B0088091CB
:101AD0006D028695869586950E94560D08950E9402
:101AE000B008089510926D0280E00E94560D08958E
:101AF00090916D028095892380936D02282F277025
:101B000021110DC0891759F09091FF0292FF07C073
:101B10008695869586950E94C0080E94720D08954C
:101B2000CF93C82F8091FF0282FB992790F99C17D1
:101B3000E9F0C0FB82F98093FF028091FE02909150
:101B4000FF020E94EA0D82E00E94780D8091AC02B3
:101B500080FF0CC01F92CF938FE192E09F938F93F1
:101B60000E9464030F900F900F900F90CF910895F3
:101B70008091FF02002482FF0394802D0E94900D2B
:101B8000089581E00E94900D089580E00E94900DDC
:101B900008956FEF7FEF80E090E00E94C9280895DC
:101BA00080E090E00E9495289C0181E0253E3E4F18
:101BB00009F080E0089582E090E00E948D28089569
:101BC00083E090E00E948D28089584E090E00E94D8
:101BD00095280895BC0184E090E00E94C9280895EA
:101BE000AB01BC018FE090E00E94BD280895AB01DD
:101BF000BC0183E190E00E94BD28089560E070E0A0
:101C0000CB010E94F70D089560E070E0CB010E94C7
:101C1000F00D0E94FE0D0895A8E0B0E0E2E1FEE0C4
:101C20000C943C2865EE7EEF80E090E00E94C9288D
:101C300060E082E090E00E94AB2881E090E0909329
:101C400003028093020261E083E090E00E94AB28EF
:101C500060E074E184E090E00E94C92860E086E0E2
:101C600090E00E94AB2860E087E090E00E94AB2803
:101C700040E050E0BA0188E090E00E94BD2860E0BA
:101C800083E290E00E94AB2860E08CE090E00E944C
:101C9000AB2860E08DE090E00E94AB2819821A82A8
:101CA0001B821C821D821E821F82188648E050E023
:101CB00067E170E0CE0101960E949B2840E050E071
:101CC000BA018FE190E00E94BD280E94040E289680
:101CD000E2E00C9458280E940C0E0895682F8EE0C4
:101CE00090E00E94AB280895A6E0B0E0EAE7FEE0AD
:101CF0000C943A280E94611E8C0180919A02909166
:101D00009B028017910779F019821A820E94611E46
:101D1000BC0149815A8180E090E00E94E604109362
:101D20009B0200939A022696E4E00C9456280E94A7
:101D3000A1116093A8027093A9028093AA029093C4
:101D4000AB026093A4027093A5028093A6029093C5
:101D5000A7020895089508950E94AA0E089508956F
:101D60000E94AF0E089581E008958DE492E20E94F2
:101D700079160E94AB0E0E94AC0E08950E94D713F4
:101D80000895089508950E94C10E0E94C20E0895FC
:101D90000E94D00D811102C00E946B0E0E94DB0DCB
:101DA0008093AC020E94E50D9093FF028093FE02A7
:101DB0000E949C160E94E00D90E00E9474088091A1
:101DC0000002909101020E94950808950E94581EF9
:101DD0000E947B110E94DD130E9416130E94C80E00
:101DE0000E94AF040E949F160E94EF130E94B00E43
:101DF0000895A6E0B0E0EFEFFEE00C9433280E94D7
:101E0000B30E81110CC00E94740E0E94D7130E9461
:101E1000E3190E94BC042696EBE00C944F280E9424
:101E20003A138CE9A82E82E0B82E750110E0F70174
:101E300001917F01812F0E94CB111F5F183009F49F
:101E400042C00817A1F38091AC0281FD0E94D1111C
:101E50000E94BE0EC82E00E099249394802F0E9409
:101E6000CB11182FF50191915F01891731F1D82E0F
:101E7000D926F12CEE24E3948E2D8D218115B1F01D
:101E8000C114A1F0F9820A830E94611E9C838B8396
:101E90009D8291E08E2D8123811101C090E04981C6
:101EA0005A816B817C818D810E94E604F394EE0C53
:101EB000F5E0FF12E1CFF50112930F5F083071F6E4
:101EC0000E94970EA2CF0813BECF9DCF1F93CF9332
:101ED000DF930E948B10EC01811522E5920708F038
:101EE0005DC0811540E5940708F0DBC0803E910598
:101EF00028F58D3C910508F0ACC0883A910578F43E
:101F0000853A910508F0A2C08130910509F441C0DD
:101F10000497813A9105E8F1C0E0D0E03AC0885AD0
:101F200091094B97C8F7C85AD0E0CC0FDD1FC259B2
:101F3000DE4F0990D881C02DD4642BC0811550E4A8
:101F40009507F8F4C11580E2D80708F0C0C0C83E74
:101F5000D105F8F0CE019A9581159F41E8F68D2FB5
:101F60000E942C11182FCE0199270E948B10212F2F
:101F700030E0322F2227E901CC27DF71C82BD92B83
:101F800008C099270E948B10CC27DF70C82BD92B53
:101F9000D06ACE01DF91CF911F910895803842E53C
:101FA0009407C8F5803652E5950708F05BC0C03449
:101FB00082E5D807D0F4C03292E5D90708F04BC0CB
:101FC0008C2F8695869520E2829FC0011124C370D4
:101FD00021E030E0A90102C0440F551FCA95E2F785
:101FE000EA01C82BD92BDD68D4CF8C2F8695869536
:101FF000877050E2859FC0011124C37021E030E05A
:10200000A90102C0440F551FCA95E2F7EA01C82B87
:10201000D92BDC68BECF803C52E5950758F48F7110
:10202000C03AD245A0F590E0982F8827EC01C46F04
:10203000D06AAFCF805C9245809708F06DCFDC2FDF
:10204000CC27CC27DF71C06FD06AA3CFA497D06410
:10205000A0CFD0659ECFCF71D0E0DC2FCC27C16F51
:10206000D06A97CF86958695877020E2829FC001BF
:102070001124C37021E030E0A90102C0440F551FB4
:10208000CA95E2F7EA01C82BD92BDA6882CF0E9401
:102090002C11C82FD0E0DC2FCC27CC27DF71D062E9
:1020A00078CF8F710E942C1153E0CC0FDD1F5A9511
:1020B000E1F7CC27DF70282F30E084FF04C050E127
:1020C000859F90011124C22BD32BD06962CF8D2F15
:1020D0008F710E942C11182FCE0199270E948B100E
:1020E000212F30E0322F222722273F71282B392B36
:1020F000E901D5CF462F672F783028F4453018F402
:102100000E948903089580E090E008950E947A106B
:102110000E94660F08959C01803E910509F448C015
:10212000D8F48133910509F47DC048F489329105D2
:1021300009F46DC08A9709F47CC0C90108958933F8
:10214000910551F18238910539F1C597B1F7809128
:10215000FE0285FFF2CF29C0843E910509F447C0F5
:1021600048F4823E910599F1833E9105A9F121EE53
:1021700030E0E3CF863E910509F444C0873E9105E7
:10218000E1F68091FE0283FD61C09091FF0291FF14
:102190002BC024EE30E0D1CF8091FE0283708111FC
:1021A00052C08091FF0283FFC8CF29E230E0C5CF43
:1021B0008091FE0280FD33C09091FF0290FFBDCF61
:1021C00023EE30E084FFB9CF20E030E0B6CF80913D
:1021D000FE0282FDF5CFB1CF8091FE0282FD30C0BC
:1021E0009091FF0290FD2FC084FFA7CFEDCF80918B
:1021F000FF0281FFA2CF8091FE0227EE30E084FD36
:10220000E3CF9BCF8091FE0283FDF7CF96CF8091E5
:10221000FE0285FD1EC08091FF0283FF8ECF29E361
:1022200030E08BCF8091FE0286FF87CF2AE230E03C
:1022300084CF8091FE0286FF80CF21E330E07DCF06
:1022400022EE30E07ACF20EE30E077CF26EE30E09D
:1022500074CF25E330E071CF9091FE0292FF10C061
:1022600041E0282F2471243009F040E031E0282F8C
:102270002871283009F030E0431711F02CE0822754
:1022800093FF10C041E0282F2471243109F040E071
:1022900031E0282F2871283109F030E0431711F080
:1022A0002CE082273091FF0230FF10C051E0282F30
:1022B0002171213009F050E041E0282F28712830A9
:1022C00009F040E0541711F029E0822731FF10C0D7
:1022D00041E0282F2171213109F040E031E0282F21
:1022E0002871283109F030E0431711F029E08227E6
:1022F00094FD877E089510920003109201031092BE
:102300000203109203030895CF92DF92EF92FF929F
:102310006B017C010E94D71381110EC00E946D1EBB
:10232000C61AD70AE80AF90AC0920003D09201033C
:10233000E0920203F0920303FF90EF90DF90CF90C2
:102340000895CF92DF92EF92FF920E94D7138115EA
:1023500059F00E946D1E6B017C01C701B601FF9010
:10236000EF90DF90CF9008950E946D1EC090000303
:10237000D0900103E0900203F0900303C60ED71E35
:10238000E81EF91EEACF08950E94C311089508952A
:102390000E94C7110895E82FF0E0E35FFC4F8081B1
:1023A0000895A0E0B0E0E7EDF1E10C94322883E479
:1023B00092E09F938F930E9464038DE0E82E83E068
:1023C000F82E0F900F90812C912C9EE3A92E92E075
:1023D000B92E2BE3C22E22E0D22E06E312E0C4E394
:1023E000D2E09F928F92BF92AF920E946403DF92DD
:1023F000CF920E946403F70181917F010E948D04B6
:102400001F928F931F930F930E946403DF93CF93C8
:102410000E9464039FEF891A990AEDB7FEB73C96B4
:102420000FB6F894FEBF0FBEEDBFF8E08F16910413
:10243000C1F6CDB7DEB7ECE00C944E2880EA8A9561
:10244000F1F7089500C008950E941E12089508959E
:102450000E9427120895A4E0B0E0E1E3F2E10C94B9
:1024600038280E94D713182F8091150390E0835FBE
:102470009C4F1115F1F104E09E012F5F3F4F790150
:10248000F901202F11922A95E9F7B7010E94FD1357
:102490008115B9F08091040390E044E050E0B70169
:1024A000835F9C4F0E94772821E02093AD02892B07
:1024B00091F410E00E94C811812F2496E6E00C945C
:1024C00054288091AD028115A1F3F70111920A956C
:1024D000E9F71092AD02E0910403F0E0E35FFC4FF6
:1024E00089819A81AB81BC8180839183A283B383EC
:1024F000E1CF2091040330E0BC01C901835F9C4F10
:102500000E94A5140E942812D7CFF894E82FE295D4
:10251000EF70F0E041A18F7021E030E0B90102C01E
:10252000660F771F8A95E2F7CB01962F909594233B
:1025300091A392A1892B82A378940895CF93DF93DE
:1025400081E30E94851282E30E94851283E30E9448
:10255000851286E30E948512C4EAD1E089918F3FFB
:1025600011F00E94851281E0C93AD807B9F7DF91CE
:10257000CF910895A0E0B0E0E0ECF2E10C943628B1
:10258000EC01D62E062F10E0C80187559E4F7C0126
:10259000FC0180818F3F09F444C0F894E82FE29554
:1025A000EF70F0E091A18F7021E030E001C0220FC8
:1025B0008A95EAF7892F822B81A382A1209528236F
:1025C00022A378940E942212A4EAB1E091E0C12CE7
:1025D0008D918F3F79F0E82FE295EF70E05EF0E0AB
:1025E000208130E08F7002C0359527958A95E2F7FB
:1025F000892F20FD80E0C82A990FF1E0A93ABF0792
:1026000039F7F70180818F3F11F00E94851261E058
:10261000C11001C060E08D2D0E942412C00FD11F97
:10262000C882CDB7DEB7E8E00C945228809104014F
:102630008091040191E08927880F880F809315030A
:1026400094E0981B909304030E949E1288E0EDE0B2
:10265000F3E0DF01982F1D929A95E9F7E5E0F3E0AA
:10266000DF011D928A95E9F784E00E947A130E94A7
:10267000C4110895A8E0B0E0E0E4F3E10C94392837
:10268000FE01319688E0DF011D928A95E9F710E09E
:10269000FE2E0F2F612F8F2D902F0E94BA121F5FD9
:1026A0001430C1F748E050E06F2D702F85E093E0C3
:1026B0000E94772821E0892B99F420E0609115038E
:1026C00070E0635F7C4F44E085E093E00E947B1301
:1026D000182F0E942B12812B2896E5E00C94552888
:1026E00088E0EF2DF02FA5E0B3E001900D928A95E0
:1026F000E1F7E4CF0895A0E0B0E0E1E8F3E10C9465
:102700003628D82EE92EF62ED72F042FC22F2115CA
:1027100079F081E08093B0020E94611E9093AF0235
:102720008093AE0280E0CDB7DEB7E8E00C9452288B
:10273000C090B002C114B1F38091AE029091AF028B
:102740000E94791E059770F310E0A8016D2D7E2D73
:102750008F2D9D2F0E947728892B41F0A8016D2D88
:102760007E2D8F2D9D2F0E948428CC2D1092B0029B
:102770008C2FD9CF0F931F93CF9308EC10E00E94BA
:102780000028C82F81110BC08FE39CE90197F1F756
:1027900000C000000150104091F70E94FB278C2FD1
:1027A000CF911F910F9108958091B4020895809167
:1027B000B30208950E94D71308950E94BA1380931C
:1027C000B3020E94DA138093B4020E94D413809360
:1027D00004010E94D71381110E94501408950E9491
:1027E000D713811102C00E945314089581E0909183
:1027F000B5029A3008F080E00895FF920F931F937E
:10280000CF93DF93F82ED92F162F072FC091B50243
:10281000CA30F8F4612F702F8F2D9D2F0E94A214C3
:1028200081112DC08091B5028F3F11F50E94611E6C
:102830009093B2028093B1028091AC0280FF12C0EB
:1028400085E692E09F938F930E9464030F900F9010
:1028500009C08091B1029091B2020E94791E843F1A
:102860009140C0F680E0CDB7DEB7E5E00C94552886
:102870008F5F8093B5028A30C8F681E0F4CFCA300A
:1028800060F08091AC0280FF08C082E592E09F93E7
:102890008F930E9464030F900F901092B502EDCFBA
:1028A0000E94351F08950E94381F0895A0E0B0E0EF
:1028B000ECE5F4E10C943628FA0169017801C82F9F
:1028C000880FDD0B3097B9F0DE0193E0AA0FBB1F34
:1028D0009A95E1F7AB5FBE4F11968D919C9112973F
:1028E0008A549D4F2C91422F50E0E217F10508F4D5
:1028F000AF010E948428CE010E942320182F811549
:10290000D9F0E114F104C1F083E0CC0FDD1F8A950A
:10291000E1F7FE01EB5FFE4F8381482F50E0E816A0
:10292000F10408F4A701CB5FDE4F6C817D816A540E
:102930007D4FC6010E948428812FCDB7DEB7E8E025
:102940000C9452280E94F61508950E9420160895AE
:10295000A4E0B0E0EEEAF4E10C943A286091D302EE
:102960007091D4028091D5029091D6020E94881E67
:1029700011E0643671058105910520F10E94A111D5
:10298000DC01CB010296A11DB11D89839A83AB8323
:10299000BC8300E010E020E030E044E050E0BE0105
:1029A0006F5F7F4F83E00E945614182F811551F0FE
:1029B0000E946D1E6093D3027093D4028093D5025F
:1029C0009093D602812F2496E4E00C945628A0E040
:1029D000B0E0EDEEF4E10C943128E82E992E862E2D
:1029E000772E042FF52E59010E94F6139AE0C92E76
:1029F000D12C811103C0CC24C394D12CC1E0D0E0F0
:102A0000682D772D8E2D992DF5010995182F81119F
:102A100026C02196CC16DD0694F0CC9FC001CD9F38
:102A2000900D900D112420E030E045E34A95F1F738
:102A300000002F5F3F4F28173907B9F7E1CF80918A
:102A4000AC0280FF0CC0FF920F938BE992E09F9342
:102A50008F930E9464030F900F900F900F90812F1F
:102A6000CDB7DEB7EDE00C944D280F931F93CF93B5
:102A7000DF93D82FC92F6091AD017091AE016B5FCC
:102A80007F4F44E050E00E9477288C016091CF0294
:102A90007091D0028091D1029091D2020E94881E42
:102AA000643671058105910510F4012BB9F000E041
:102AB00010E020E030E044E050E06D2F7C2F82E019
:102AC0000E945614811559F00E946D1E6093CF022A
:102AD0007093D0028093D1029093D20281E0DF9173
:102AE000CF911F910F910895A5E0B0E0EAE7F5E1DD
:102AF0000C9434287B01C090AD01D090AE0101E070
:102B000010E09E012B5F3F4F40E050E060E070E03E
:102B100080E00E945614182F811509F44AC056010E
:102B20008FEFA81AB80A6091CB027091CC02809105
:102B3000CD029091CE020E94881E643671058105F7
:102B4000910578F104E010E09E012F5F3F4F40E0D7
:102B500050E060E070E081E00E945614182F64E0BD
:102B600070E0C5010E94A0169D8198132DC011151B
:102B700059F10E946D1E6093CB027093CC0280933A
:102B8000CD029093CE0289819A81AB81BC818093E2
:102B9000C7029093C802A093C902B093CA0281E011
:102BA00014C064E070E0C5010E94A0169D818913E5
:102BB000C9CFF60181819281A381B48189839A83EF
:102BC000AB83BC831111DFCF80E04091C7025091ED
:102BD000C8026091C9027091CA02F7014083518313
:102BE000628373832596EAE00C9450280F931F9319
:102BF000CF93DF93D82FC92F8B0124E735E14FEA1C
:102C000051E00E94E714811106C080E0DF91CF916E
:102C10001F910F91089525E335E14CEB51E0B80188
:102C20008D2F9C2F0E94E714811579F328EA34E157
:102C30004AEC51E0B8018D2F9C2F0E94E714E6CF9B
:102C40000F931F93CF93DF938C01FB01C091AD01D4
:102C5000D091AE01CE01019624E0DC0101900D92ED
:102C60002A95E1F764E070E00E94A0168883FE01D7
:102C7000359684E0D80101900D928A95E1F7698537
:102C80007A858B859C850091C3021091C4022091A6
:102C9000C5023091C602601771078207930751F091
:102CA0006093C3027093C4028093C5029093C602DE
:102CB0000E948411DF91CF911F910F9108950E947E
:102CC000F90E08950E94FA1D0E94AE220E94B50ED0
:102CD0000E94C8220E94E60E0E94D5220E94DA229B
:102CE0000E945F160E9400230E94E9200E94C30EEA
:102CF000F5CF9093E5018093E40108950E94C90DFA
:102D0000089580E00E94CB11817008950E943A13CB
:102D10002FEF86E791E0215080409040E1F700C01E
:102D200000000E943A130E948116811521F00E9432
:102D30007E160E94C21E08950E9486160895089568
:102D4000FC01680F791F8FEF41E3E617F70709F4DD
:102D500008959191892728E030E0982F990F87FFF7
:102D600006C0892F842721503040B9F7EECF892F34
:102D7000FACFCF93DF93EB0186319C4719F50E9480
:102D80008F0C9D819115A1F08A7A91E0811101C08B
:102D900090E09093D702811549F085E30E944B1D86
:102DA0000E94470D80E0DF91CF91089589E2F6CF30
:102DB0008091D702811521F085E30E94621DF0CF3A
:102DC00089E2FBCF81E0EFCFCF93DF93EC01FB01F2
:102DD0008581811509F4CFC09E013057233231051A
:102DE00008F0AFC00E94E50D9093FF028093FE02B1
:102DF000FE01E150F047E232F10520F4E351F74DD6
:102E00000C9426288091FE0281608093FE0290C07F
:102E10008091FF0288608093FF028AC08091FE0249
:102E20008260F3CF8091FE028460EFCF8091FE023A
:102E30008860EBCF8091FF028160EDCF8091FF022F
:102E40008260E9CF8091FE028061DFCF8091FE0237
:102E50008062DBCF8091FE028064D7CF0E941E0883
:102E60008091FE028068D1CF8091FE028C60CDCF30
:102E70008091FF028360CFCF8091FE028E7FC5CF0D
:102E80008091FF02877FC7CF8091FE028D7FBDCFEB
:102E90008091FE028B7FB9CF8091FE02877FB5CFF4
:102EA0008091FF028E7FB7CF8091FF028D7FB3CFDD
:102EB0008091FE028F7EA9CF8091FE028F7DA5CFEB
:102EC0008091FE028F7BA1CF0E941E088091FE029E
:102ED0008F779BCF8091FE02837F97CF8091FF02F7
:102EE0008C7F99CF8091FE02992782FF939590FB6A
:102EF00082F990FB83F989CF8091FF02982F9095FA
:102F000090FB80F990FB81F986CF9091FE02892F8A
:102F10008F7B96FF806479CF0E941E089091FE02FD
:102F2000892F97FB87F9805870CF81E00E946E0E41
:102F30008091FE029091FF020E94EA0D0E941E08FD
:102F400080E0DF91CF91089580E0F0CF9091FE0274
:102F5000892F8F7E94FF806158CF9091FE02892F38
:102F60008E7F90FF816051CF9091FF02892F877FE4
:102F700093FF886050CF81E0E4CF282F35EB230307
:102F8000C001112497FF04C080589109892F08952A
:102F900080589F4FFBCF8091DE0280FF0DC0609173
:102FA0002A0170E0660F771F60387105B0F5611572
:102FB0007105A9F1862F089581FF07C060912A014C
:102FC00084E0689FB0011124EFCF82FF04C06091BC
:102FD0002A0188E0F6CF9091DD029115D9F0209179
:102FE000290180912A01682F70E0921730F043E0A8
:102FF000660F771F4A95E1F7D7CF899FC00111244B
:1030000033E0880F991F3A95E1F7622F70E00E9434
:103010001228CACF68E070E0CDCF8FE7089581E035
:1030200008958091DE0280FF0CC06091260170E05F
:1030300075956795759567956115710549F1862FA9
:10304000089581FF06C06091260170E0759567952F
:10305000F3CF6091260182FD0BC09091DC029115A7
:10306000A1F06091250180912601961738F0682F14
:1030700070E06038710500F38FE70895899FC00103
:10308000112470E00E941228F4CF61E070E0D7CFE5
:1030900081E00895E3E3E80FE331E0F5F0E0E15F7C
:1030A000F64D0C9426280E94CB1781958093E2025E
:1030B00008950E94CB17FACF0E94CB178195809379
:1030C000E10208950E94CB17FACF0E941118809355
:1030D000E30208950E9411188195F9CF0E941118FA
:1030E00081958093E40208950E941118FACF815DC2
:1030F000990B21E030E001C0220F8A95EAF7809118
:10310000E002822B8093E00208958091DE028160CC
:103110008093DE0208958091DE028260F9CF809173
:10312000DE028460F5CF4091E1028D3C59F480913C
:10313000E20287FF0DC01092E202411559F410928D
:10314000DD0208C08E3C81F48091E20218169CF3E7
:10315000411581F08091E3029091E402892B811165
:1031600059C01092DC0208958F3C41F447FFF0CF24
:103170001092E1028091E2028115E0CF803D19F4C6
:103180001416B4F3E5CF9091E302893D29F41916A2
:10319000FCF61092E302DCCF8A3D19F497FFD8CFFA
:1031A000F8CF9091E4028B3D29F497FFD1CF109294
:1031B000E402CECF8C3D19F41916CCF3C9CF9FE2AF
:1031C000980F983090F4815D990B21E030E0B901BF
:1031D00002C0660F771F8A95E2F7CB018095909128
:1031E000E00289238093E002B3CF8D3D31F48091DA
:1031F000DE028E7F8093DE02ABCF8E3D21F4809184
:10320000DE028D7FF7CF8F3D09F0A2CF8091DE02E5
:103210008B7FF0CF08958091AC0283FF96C088ED3C
:1032200092E09F938F930E9464038091E0021F922B
:103230008F9383ED92E09F938F930E94640381EDBF
:1032400092E09F938F930E9464038091E102282F64
:10325000082E000C330B3F938F938EEC92E09F93DC
:103260008F930E9464038CEC92E09F938F930E9453
:1032700064038091E202282F082E000C330B3F9349
:103280008F9389EC92E09F938F930E94640387EC65
:1032900092E09F938F930E9464038091E302282F12
:1032A000082E000C330B3F938F9384EC92E09F9396
:1032B0008F930E94640382EC92E09F938F930E940D
:1032C00064038091E402282F082E000C330B3F93F7
:1032D0008F938FEB92E09F938F930E9464038CEB0C
:1032E00092E09F938F930E9464038DB79EB7809660
:1032F0000FB6F8949EBF0FBE8DBF8091DD021F9266
:103300008F9389EB92E09F938F930E94640387EBE6
:1033100092E09F938F930E9464038091DE021F923C
:103320008F9384EB92E09F938F930E94640381EBD1
:1033300092E09F938F930E9464038DB79EB70C9683
:103340000FB6F8949EBF0FBE8DBF0E94611E2091E4
:10335000E1023091E202232B211521F08093DA0261
:103360009093DB022091E3023091E402232B21159C
:1033700021F08093D8029093D9028FED92E00E94C1
:10338000211C089586E0EFEDF2E0DF011D928A95A1
:10339000E9F71092DD021092DC021092DE0208952D
:1033A000FC01828181110DC0838181110AC0848159
:1033B000811107C081E09581911101C080E0817089
:1033C000089581E0FCCFA6E0B0E0E9EEF9E10C94CD
:1033D000362886E0EFEDF2E09E012F5F3F4FD901E6
:1033E00001900D928A95E1F71092E1021092E202AB
:1033F0001092E3021092E4028B819C81892B790167
:10340000811589F08091DA029091DB020E94791E89
:103410006C018091DD028115B9F190912B019C1511
:103420001D0408F43EC08D819E81892B811591F089
:103430008091D8029091D9020E94791E8C018091CE
:10344000DC02811509F45FC09091270190171106E5
:1034500008F467C0B7018FED92E00E94931D8111BF
:1034600005C08FED92E00E94D01981110E940B19C6
:1034700086E0F701AFEDB2E001900D928A95E1F799
:103480002696E8E00C94522820912C019AE0299F7E
:10349000900111242C153D0530F68F5F8093DD02DD
:1034A00002C08F3FD1F7DB80D11459F00E94CB17B7
:1034B00091E01D140CF09FEF899F802D11248093C3
:1034C000E102DC80D11459F00E94CB1791E01D1469
:1034D0000CF09FEF899F802D11248093E202809150
:1034E000E102811509F49FCFD090E202D11409F4D2
:1034F0009ACF0E94BD178093E1028D2D0E94BD17C7
:103500008093E20290CF209128019AE0299F9001B8
:1035100011242017310708F09DCF8F5F8093DC02C4
:1035200002C08F3FD1F71D81111559F00E9411186B
:1035300091E011160CF09FEF899F802D112480934C
:10354000E3021E81111559F00E94111891E0111625
:103550000CF09FEF899F802D11248093E4028091CD
:10356000E302811509F476CF1091E402111509F4F4
:1035700071CF0E94BD178093E302812F0E94BD1777
:103580008093E40267CF0F931F93CF93DF93C42FF1
:10359000D22FFC0185818115C9F04093E7020E947A
:1035A000611E9093E6028093E50280E28C0F8830E2
:1035B00040F4C77081E001C0880FCA95EAF70E9405
:1035C000C705DF91CF911F910F9108951091E702E8
:1035D000141333C08091E5029091E6020E94791E97
:1035E000883C910550F5C0E2CD0F1D17C1F080E277
:1035F000810F883040F4177081E001C0880F1A9560
:10360000EAF70E94CE05C83050F491E08D2F877004
:1036100001C0990F8A95EAF7892F0E94C705802F6C
:103620000E94BE05C83068F6D77081E001C0880FDF
:10363000DA95EAF70E94CE05C4CF80E28C0F88307D
:1036400008F0BFCFC77081E001C0880FCA95EAF7C4
:10365000F1CF0F93DB01FC01E851FC47E730F105A6
:1036600098F5EE5DF64D0C94262806E221EE41EE2B
:103670006AE17CE7CD010E94C31A80E00F910895B2
:1036800007E225EE45EE6BE17CE7F4CF06E221EEA2
:1036900040EE68E17CE7EECF07E225EE44EE69E11B
:1036A0007CE7E8CF06E221EE42EE6CE17CE7E2CF78
:1036B00007E225EE46EE6DE17CE7DCCF08E221E093
:1036C00045EE6EE17CE7D6CF15968C918111109274
:1036D000E70281E0D3CF9093EE028093ED0208954C
:1036E0000E94D713811103C08091E8020895E091F0
:1036F000ED02F091EE02309729F00190F081E02D7B
:103700000995089580E00895EF92FF920F931F931B
:10371000CF93DF93EC01E091ED02F091EE02309750
:10372000D9F10280F381E02D09958091AC0282FFEE
:1037300033C080FF0DC088811F928F9380E293E099
:103740009F938F930E9464030F900F900F900F90A0
:10375000CE0106967C010AE113E08091AC0280FF65
:103760000BC08A811F928F931F930F930E94640353
:103770000F900F900F900F902196CE15DF0569F7EF
:103780008091AC0280FF08C088E193E09F938F9303
:103790000E9464030F900F90CDB7DEB7E6E00C9463
:1037A0005428EF92FF920F931F93CF93DF93EC0176
:1037B000E091ED02F091EE023097F1F186E088831E
:1037C0000480F581E02DCE0109958091AC0282FF45
:1037D00033C080FF0DC089811F928F9383E093E0F7
:1037E0009F938F930E9464030F900F900F900F9000
:1037F000CE014E967C010DEF12E08091AC0280FF6D
:103800000BC08A811F928F931F930F930E946403B2
:103810000F900F900F900F902196CE15DF0569F74E
:103820008091AC0280FF08C08BEF92E09F938F9352
:103830000E9464030F900F90CDB7DEB7E6E00C94C2
:103840005428DC01E091ED02F091EE02309739F05E
:1038500082E08C930680F781E02DCD0109950895D3
:10386000A3E0B0E0E6E3FCE10C943C289C018091ED
:10387000EB029091EC0282179307A1F03093EC02D7
:103880002093EB02E091ED02F091EE02309751F0BF
:1038900083E089833B832A830084F185E02DCE0178
:1038A000019609952396E2E00C945828A3E0B0E035
:1038B000ECE5FCE10C943C289C018091E90290919C
:1038C000EA0282179307A1F03093EA022093E902FB
:1038D000E091ED02F091EE02309751F084E089839F
:1038E0003B832A830084F185E02DCE010196099562
:1038F0002396E2E00C9458282091020130910301B4
:103900002E5F3F4F80913701811579F08091FE0243
:1039100087FF0BC020910001309101012E5F3F4FC6
:103920009EE180E0915018F4089596E0FACFF901F5
:1039300041919F014115B1F38F5FF4CF8115A1F142
:1039400090913701911521F09091FE0297FD0FC0E3
:103950002091020130910301F9013296285F3F4F17
:103960009191981719F1E217F307D1F71DC0982F1D
:10397000969596959695803FB8F4E0910001F09168
:103980000101E90FF11D228130E0877041E050E034
:10399000BA0102C0660F771F8A95E2F7CB01262392
:1039A000392381E0232B19F480E0089581E0089504
:1039B0009C01FC0132968FEF90E04191461751F047
:1039C0008F3F19F4411101C0892F9F5F9630A9F7ED
:1039D0008F3F09F40895280F311D87FD3A95F901AD
:1039E000628308959C01FC013296285F3F4F8191CC
:1039F000861302C0DF011E92E217F307C1F7089594
:103A0000FC01862F869586958695603F68F4E80FC1
:103A1000F11D677021E030E001C0220F6A95EAF7DE
:103A20008281822B828308958091AC0280FF0CC03A
:103A30001F926F9387E593E09F938F930E94640397
:103A40000F900F900F900F900895FC01862F869590
:103A500086958695603F70F4E80FF11D677081E0F0
:103A600090E001C0880F6A95EAF7809592818923DA
:103A7000828308958091AC0280FF0CC01F926F93E7
:103A800089E393E09F938F930E9464030F900F90BC
:103A90000F900F900895682F80913701811559F08C
:103AA0008091FE0287FF07C0809100019091010183
:103AB0000E94001D089580910201909103010E94CF
:103AC000D81C0895682F80913701811559F0809195
:103AD000FE0287FF07C080910001909101010E94C2
:103AE000251D089580910201909103010E94F21C0E
:103AF000089580913701811579F08091FE0287FF4A
:103B00000BC0E0910001F091010132968EE1DF01DE
:103B10001D928A95E9F70895E0910201F091030161
:103B2000329686E0F4CFDC01FB0111969C9111974F
:103B30008181981322C012968C911297811519F0E9
:103B4000928189131AC013968C911397811519F0DD
:103B50009381891312C015968C911597811519F0D0
:103B6000958189130AC014969C91911521F081E0EA
:103B70002481291303C080E001C081E08170089591
:103B800008950E94C01D08958F5F8093EF020E94E8
:103B9000C11D089583E08093EF020E94C11D089526
:103BA0000E94C41D089581E08093EF020E94C11D10
:103BB00008950E94D31D0895089508950E94DD1D63
:103BC0000895089508950E94DC1D0895CF930E94E2
:103BD000E11D0E943A130E94E21DC0E08C2F0E945A
:103BE000CB11811105C0CF5FC830C1F7CF910895C7
:103BF00081E0FCCF85B7806885BF85B7806885BFC9
:103C000008951F921FB61F9211248F939F93AF9315
:103C1000BF938091F002811113C08091160390919F
:103C20001703A0911803B09119034196A11DB11D6E
:103C30008093160390931703A0931803B09319036E
:103C4000BF91AF919F918F911F901FBE1F901895AC
:103C500080911E03843031F10E9483041092F0029F
:103C600088E190E020E40FB6F894A8958093600076
:103C70000FBE2093600083B7817F846083BF83B7CA
:103C8000816083BF7894889583B78E7F83BF0FB69A
:103C9000F894A895809160008861809360001092EC
:103CA00060000FBE08950E941E080E9488040895B7
:103CB00082E084BD93E095BD9AEF97BD80936E003E
:103CC00008952FB7F8948091160390911703A0914F
:103CD0001803B09119032FBF08952FB7F89460917E
:103CE00016037091170380911803909119032FBF49
:103CF00008959C014FB7F894809116039091170393
:103D0000A0911803B09119034FBF821B930B089524
:103D10000F931F938B019C014FB7F894609116038A
:103D20007091170380911803909119034FBF601B86
:103D3000710B820B930B1F910F91089578941F9232
:103D40001FB61F9211248F939F93AF93BF938091BF
:103D5000160390911703A0911803B09119030196CF
:103D6000A11DB11D8093160390931703A093180310
:103D7000B0931903BF91AF919F918F911F901FBE78
:103D80001F90189587E797E79093010880930008A4
:103D900088E19AE00FB6F894A895809360000FBE72
:103DA00090936000FFCF88E19AE00FB6F894A89551
:103DB000809360000FBE90936000FFCF8EE1489B20
:103DC00002C08A95E1F7489BFECF0895589880E29B
:103DD0008A95F1F7589A0895FC012BE02A95F1F79E
:103DE00028E090E080E031E040E14A95F1F7880F6B
:103DF000489B02C08160932742E04A95F1F700009A
:103E000040E14A95F1F72A9579F720E12A95F1F7F3
:103E100029B132E03A95F1F7000040E14A95F1F717
:103E2000217092272081920F90830895A1E0B0E045
:103E3000ECE1FFE10C94382819828C017C01E60E3C
:103E4000F11C0E94DE1ECE0101960E94EC1EF801BC
:103E500081938F01EE15FF05A1F781E09981911102
:103E600080E02196E6E00C945428509A589A0895E0
:103E70005098589AE89AE9E6F0E080818C7F808338
:103E800008956150770B91E001C0990F6A95EAF7A8
:103E9000692F90E021E0611108C0911599F0589ABE
:103EA00080E28A95F1F758980895362F3823311516
:103EB00039F0589A922730E23A95F1F76695EBCFB0
:103EC0005898F9CF5898ECCFFF920F931F93CF9348
:103ED000DF93EC018C01060F111DF9900E94E61E84
:103EE00068E08F2D0E94411FC017D107B1F7CDB7F1
:103EF000DEB7E5E00C9455281F920F920FB60F9293
:103F000011240F931F932F933F934F935F936F93BE
:103F10007F938F939F93AF93BF93EF93FF93CF9331
:103F2000DF930F92CDB7DEB719820E94DE1ECE015D
:103F300001960E94EC1E082F069506950695982F6F
:103F400092959570202F2570920F292F23709695AA
:103F50009695920F982797708981892B811509F082
:103F60005CC0053008F059C080E18A95F1F7589A95
:103F7000509A82E08A95F1F700C0589888E0089F2F
:103F800080011124D801AB5FBE4F1696ED91FC91D4
:103F900017973097A9F06091AD017091AE0114961A
:103FA0002D913C911597260F371F11968D919C915D
:103FB0001297680F791F13964C9113978C9109955E
:103FC000F801EB5FFE4F6381611551F02091AD0167
:103FD0003091AE0184819581820F931F0E94641FEE
:103FE0000E94E61E80E18A95F1F758985098589AF9
:103FF00080E18A95F1F7F801EB5FFE4F6081611572
:1040000051F02091AD013091AE0181819281820FFA
:10401000931F0E94161F0E94DE1E0F90DF91CF910A
:10402000FF91EF91BF91AF919F918F917F916F9190
:104030005F914F913F912F911F910F910F900FBE64
:104040000F901F9018950F931F93CF93DF938C01C0
:1040500005970CF064C0F894509A589885E08A95BA
:10406000F1F70000C02FC695C570802F8570C80F6E
:104070008C2F8370C695C69593E0000F111F9A95FB
:10408000E1F7C80FC8018C2BEC010E94E61E00C0AE
:1040900068E08C2F0E94411F90E19A95F1F75098AB
:1040A000589A489B35C087E090E0489933C0F801A2
:1040B000EB5FFE4F6381611561F02091AD0130919E
:1040C000AE0184819581820F931F0E94161F811576
:1040D00019F10E94DE1E80E28A95F1F75898509AF5
:1040E00090E19A95F1F7F801EB5FFE4F6081611561
:1040F00051F02091AD013091AE0181819281820F0A
:10410000931F0E94641F0E94E61E789481E008C0FD
:1041100000C0C7CF019749F4509A589A789480E02C
:10412000DF91CF911F910F91089500C0BECF809174
:10413000FC020895282FCB01BA0130911E033430C0
:10414000D9F42F702093E9002FEF3091E80035FD6E
:1041500006C035ED3A95F1F700002A95B1F72091A8
:10416000E80025FF09C040E050E00E9476238091DE
:10417000E8008E778093E8000895BC0143E050E0AA
:1041800082E00E949A200895BC0146E050E082E05F
:104190000E949A200895BC0140E250E082E00E9413
:1041A0009A200895CF93DF93D82FC92F48E050E08D
:1041B000682F792F81E00E949A2088E0ED2FFC2F54
:1041C000A4EFB2E001900D928A95E1F7DF91CF91D3
:1041D000089508958BE993E09F938F930E94640361
:1041E00080911D030F900F90811109C00E94FF2440
:1041F0000E945C258091E20084608093E200089533
:1042000087E993E09F938F930E94640310921D03AC
:104210000F900F90089583E993E09F938F930E94EE
:1042200064030E94D31D0F900F9008958FE893E0D0
:104230009F938F930E94640360911A0381E0611140
:1042400001C080E00E94CA1D0F900F9008958BE876
:1042500093E09F938F930E94640390911E0381E0EB
:10426000943009F080E060911A030E94D01D0F90F5
:104270000F9008952091F2022F5F822F62E30E9437
:104280000628911519F02093F20208951092F20277
:104290008091F3028115E9F080911E038430B9F416
:1042A0009091E9008091EC009F7087958827879511
:1042B000892B93E09093E9009091EB0090FF04C06C
:1042C0009091EE0097FD08C08F708093E9001092E6
:1042D000F30208951092F1009091E80095FDFACF55
:1042E0009091E80090FFF0CF9091E8009E77909336
:1042F000E800EACF42E061EC81E00E947B2442E2E8
:1043000061EC82E00E947B2442E261EC83E00E9447
:104310007B2490911E0381E0943009F080E060914D
:104320001A030E94C41D089580912003893089F1E9
:1043300048F4823009F4A0C0833009F45AC08130B7
:1043400041F008958A3009F487C08B3009F46CC0BD
:10435000089580911F03813A09F04AC08091E800D6
:10436000877F8093E8008091230390912403892B19
:1043700061F060E080E090E070E00E94C6238091F0
:10438000E8008B778093E800089568E084EF92E07E
:10439000F3CF80911F03813259F5809123039091CF
:1043A0002403029728F58091E800877F8093E80036
:1043B0008091E80082FF18C09091F3008091F20094
:1043C000029731F48091F100813011F0863021F4B0
:1043D0008091F1008093FC028091E8008B778093BC
:1043E000E8000E94AF24089580911E038111E0CF60
:1043F000089580911F03813AD9F78091230390910A
:104400002403892BA9F78091E800877F8093E80037
:104410008091E80080FFFCCF809137018093F1000C
:104420008091E8008E77DBCF80911F03813201F706
:104430008091230390912403892BD1F68091E80089
:10444000877F8093E8000E94AF24809121038093AE
:1044500037010E941E08089580911F03813241F6A2
:104460008091E800877F8093E8000E94AF248091CC
:1044700022038093FD02089580911F03813A09F081
:10448000B7CF8091E800877F8093E8008091E800B3
:1044900080FFFCCF8091FD02C1CF9FB7F8941092AE
:1044A000F3029FBF90911E03943009F047C0209102
:1044B000E9009091EC002F70979599279795922B92
:1044C00023E02093E9002091EB0020FF34C02091ED
:1044D000EE0027FF30C02091F102211521F020913C
:1044E000E80025FF28C01092F10226E03091E80094
:1044F00035FF14C08093F1008091E80085FD27C04E
:104500008091E80080FFFCCF8091E8008E77809357
:10451000E8009F709093E90080E0089530911E03B9
:10452000343049F43091EB0035FD05C02A9541F453
:1045300081E08093F1029F709093E9008FEF0895DE
:10454000EFE9FFE03197F1F700C00000CFCF8FB760
:10455000F89421E02093F3028FBFDBCF84B7877FED
:1045600084BF0FB6F894A89580916000886180930D
:104570006000109260000FBE80E890E00FB6F894E3
:1045800080936100909361000FBE0E94D91D089531
:104590000E94FF240E945C25E2EEF0E080818460AE
:1045A000808378940E94E12708958DE291E00E9433
:1045B0006B1B089580911E03853091F48091AC02AD
:1045C00080FF08C085E793E09F938F930E94640368
:1045D0000F900F9080911E03853019F00E94531E9A
:1045E00008950E94281E0E94E61D811599F380916E
:1045F0001C03811579F30E9460230E941E08EACFF4
:1046000008959A0140912503509126030E940923A1
:104610000895FC01AB01D901892F992783309105B9
:10462000C1F068F48130910509F445C0029761F446
:1046300084E590E02BEC33E02D933C930895813298
:104640009105E1F0829739F180E090E020E030E0E0
:10465000F3CFCF019927E13059F08230910559F01D
:10466000E7ECF3E0892B81F7849190E09F01E4CFA0
:10467000E9EBF3E0F9CFEFE9F3E0F6CF6330710552
:1046800018F7FB01EE0FFF1FE252FE4F2081318130
:1046900089E090E0D1CF63307105B0F6FB01EE0FF9
:1046A000FF1FE852FE4F208131814B525E4FFA01CD
:1046B000808190E0C1CF82E190E02FE134E0BCCF77
:1046C00080E189BD82E189BD09B400FEFDCF809102
:1046D000D8008F7D8093D8008091E0008260809325
:1046E000E0008091E00081FDFCCF0895AF92BF9281
:1046F000CF92DF92EF92FF920F931F93CF936C01B3
:104700008B017A010E94CE24C82F811123C0E114AD
:10471000F10439F0F70180819181081B190BC80E53
:10472000D91EA12CB12C01151105A1F08091E80032
:1047300085FD21C08091E8008E778093E800E11428
:10474000F10499F0F701808191818A0D9B1D91837D
:104750008083C5E08C2FCF911F910F91FF90EF9038
:10476000DF90CF90BF90AF9008950E94CE24811526
:10477000E9F2C82FEFCFF60181916F018093F1002C
:1047800001501109FFEFAF1ABF0ACDCFFC019B0109
:1047900080912503909126038617970718F0672BC1
:1047A00061F0C90140E0009771F441110CC08091A3
:1047B000E80082FF35C080E008958091E8008E77A0
:1047C0008093E800EECF20911E032115A9F125303A
:1047D000A9F12091E80023FD2DC02091E80022FDE1
:1047E000E6CF2091E80020FFDECF3091F30020914A
:1047F000F200009719F02830310558F041E02830D8
:10480000310509F040E02091E8002E772093E80080
:10481000CACF41914093F10001972F5F3F4FE9CFFD
:1048200080911E03811541F0853041F08091E800B0
:1048300083FFBDCF81E0089582E0089583E008956D
:10484000FC019B0180912503909126038617970711
:1048500018F0672B61F0C90140E0009771F4411135
:104860000CC08091E80082FF36C080E008958091FE
:10487000E8008E778093E800EECF20911E0321158B
:10488000B1F12530B1F12091E80023FD2EC0209137
:10489000E80022FDE6CF2091E80020FFDECF309136
:1048A000F3002091F200009719F02830310558F0FC
:1048B00041E02830310509F040E02091E8002E77F2
:1048C0002093E800CACF44914093F10031960197BC
:1048D0002F5F3F4FE8CF80911E03811541F0853057
:1048E00041F08091E80083FFBCCF81E0089582E031
:1048F000089583E00895982F973028F08F70809363
:10490000E90081E008959093E900242F762F50E08C
:10491000981731F07091EC002091ED005091F0006B
:1049200021FD02C09F5FE8CF3091EB003E7F3093C6
:10493000EB003091ED003D7F3093ED003091EB00C6
:1049400031603093EB007093EC002093ED005093B6
:10495000F0002091EE0027FDE5CF80E008958091E2
:104960001F0387FF13C08091E80082FF06C080917B
:10497000E8008B778093E800089580911E038111F1
:10498000F2CF089580911E038115D9F38091E8003C
:1049900080FFF8CF8091E8008E77ECCF2091E40083
:1049A0003091E50095E6A9012091EC00822F8170FD
:1049B00020FF06C08091E80080FF06C080E00895D7
:1049C0002091E80022FD1AC080911E03811589F014
:1049D000853089F08091EB0085FD0FC02091E400C7
:1049E0003091E50042175307F9F29A95E1F684E019
:1049F000089582E0089583E0089581E008950E947B
:104A00006E250E947625E0EEF0E080818160808353
:104A1000E8EDF0E080818F77808319BCA7EDB0E0EE
:104A20008C918E7F8C9380818F7E808310921D036A
:104A300008950F931F93CF93DF930E946E250E94DA
:104A40007625C8EDD0E088818F778883888180685B
:104A5000888388818F7D888319BC10921E031092F1
:104A60001A0310921C0310921B0300EE10E0F801D1
:104A700080818B7F808388818160888342E060E0D1
:104A800080E00E947B24E1EEF0E080818E7F8083D5
:104A9000E2EEF0E0808181608083808188608083A5
:104AA000F80180818E7F8083888180618883DF9197
:104AB000CF911F910F910895E8EDF0E080818F7EF6
:104AC0008083E7EDF0E080818160808384E082BFB5
:104AD00081E080931D030E9419250895E8EDF0E020
:104AE00080818E7F80831092E20008951092DA0018
:104AF0001092E10008951F920F920FB60F921124A9
:104B00002F933F934F935F936F937F938F939F93D5
:104B1000AF93BF93EF93FF938091E10082FF0BC0AF
:104B20008091E20082FF07C08091E1008B7F80933B
:104B3000E1000E943A218091DA0080FF19C0809143
:104B4000D80080FF15C08091DA008E7F8093DA0054
:104B50008091D90080FF94C080E189BD82E189BD48
:104B600009B400FEFDCF81E080931E030E94EA207D
:104B70008091E10080FF19C08091E20080FF15C0A4
:104B80008091E2008E7F8093E2008091E20080615C
:104B90008093E2008091D80080628093D80019BC95
:104BA00085E080931E030E9416218091E10084FF1E
:104BB00029C08091E20084FF25C080E189BD82E1A7
:104BC00089BD09B400FEFDCF8091D8008F7D809310
:104BD000D8008091E1008F7E8093E1008091E20017
:104BE0008F7E8093E2008091E20081608093E200FA
:104BF00080911A03811509F449C084E080931E0353
:104C00000E9427218091E10083FF29C08091E2006A
:104C100083FF25C08091E100877F8093E10082E0DF
:104C200080931E0310921A038091E1008E7F80937F
:104C3000E1008091E2008E7F8093E2008091E200AB
:104C400080618093E20042E060E080E00E947B248B
:104C50008091F00088608093F0000E940B21FF910A
:104C6000EF91BF91AF919F918F917F916F915F91E4
:104C70004F913F912F910F900FBE0F901F9018955D
:104C800019BC10921E030E94002172CF8091E30094
:104C900087FF02C083E0B2CF81E0B0CF1F920F92B6
:104CA0000FB60F921124EF92FF920F931F932F9341
:104CB0003F934F935F936F937F938F939F93AF93A4
:104CC000BF93CF93EF93FF9309EE10E0F80180813B
:104CD000C091EC008F70C795CC27C795C82B108268
:104CE00080EFE82EF12CF7018081877F8083789414
:104CF0000E949926F8011082F701808188608083E4
:104D0000CF70F801C083FF91EF91CF91BF91AF9128
:104D10009F918F917F916F915F914F913F912F91D3
:104D20001F910F91FF90EF900F900FBE0F901F906B
:104D30001895AAE2B0E0EFE9F6E20C943A288FE188
:104D400093E0FC0101962091F100208323E087325B
:104D50009207B9F70E9494218091E80083FF38C040
:104D600080911F03909120039A3090F5E92FF0E095
:104D7000E75DF64D0C942628803889F0823841F59D
:104D8000809123038F70873018F58093E90080911C
:104D9000EB0085FB882780F91092E90006C080911E
:104DA0001C03880F90911B03892B9091E800977F3B
:104DB0009093E8008093F1001092F1008091E80058
:104DC0008E7723C0811116C080912103813011F1AB
:104DD0008091E80083FF0AC08091E800877F80937C
:104DE000E8008091EB0080628093EB00AA96E4E0FB
:104DF0000C945628823061F780912103811589F047
:104E00001092E9008091E800877F8093E8000E947B
:104E1000AF24DECF81E0933009F080E080931C0363
:104E2000EFCF809123038F702FEF280F263080F66D
:104E30008093E9002091EB0020FFE2CF933031F422
:104E40008091EB0080628093EB00DACF9091EB00D1
:104E500090619093EB0021E030E0A90102C0440F83
:104E6000551F8A95E2F74093EA001092EA0080917C
:104E7000EB008860E8CF8111ABCF109121031F7741
:104E80008091E3008078812B8093E3008091E8009B
:104E9000877F8093E8000E94AF248091E80080FF24
:104EA000FCCF8091E30080688093E30083E01111E0
:104EB00001C082E080931E038BCF8058823008F0BF
:104EC00087CF80912103909122038C3D53E0950779
:104ED00099F583E08A838AE289834FB7F894DE01EB
:104EE000139620E03EE051E2E32FF0E050935700AC
:104EF000849120FF03C082958F703F5F8F708A304E
:104F0000C8F0895C90E08D939D932F5F243161F709
:104F10004FBF8091E800877F8093E8006AE270E0ED
:104F2000CE0101960E94C6238091E8008B77809382
:104F3000E8004ECF805DE6CF60912303709124039B
:104F4000AE014F5F5F4F0E9401238C01892B09F452
:104F50003FCF8091E800877F8093E800B801898186
:104F60009A810E942024E0CF803809F031CF8091CF
:104F7000E800877F8093E80080911A038093F10016
:104F80001DCF811125CF90912103923008F020CFC1
:104F90008091E800877F8093E80090931A030E9435
:104FA000AF2480911A03811531F084E080931E03B1
:104FB0000E947A210DCF8091E30087FDF6CF81E03A
:104FC000F5CFCF9380911E03811599F08091E90070
:104FD000C091EC008F70C795CC27C795C82B109255
:104FE000E9008091E80083FD0E949926CF70C0936C
:104FF000E900CF9108950E94FF2410921E030895A6
:105000008091E30087FB882780F90895992778E04D
:10501000880F991F961708F0961B881F7A95C9F775
:105020008095089597FB072E16F4009407D077FD1E
:1050300009D00E94632807FC05D03EF49095819525
:105040009F4F0895709561957F4F0895EE0FFF1F54
:105050000590F491E02D09942F923F924F925F9228
:105060006F927F928F929F92AF92BF92CF92DF9278
:10507000EF92FF920F931F93CF93DF93CDB7DEB7DD
:10508000CA1BDB0B0FB6F894DEBF0FBECDBF099471
:105090002A88398848885F846E847D848C849B84C8
:1050A000AA84B984C884DF80EE80FD800C811B81D6
:1050B000AA81B981CE0FD11D0FB6F894DEBF0FBE05
:1050C000CDBFED010895AA1BBB1B51E107C0AA1F6C
:1050D000BB1FA617B70710F0A61BB70B881F991F99
:1050E0005A95A9F780959095BC01CD010895FB01D3
:1050F000DC0104C08D910190801921F44150504091
:10510000C8F7881B990B0895FB01DC0102C00190D0
:105110000D9241505040D8F70895F999FECF92BDB5
:1051200081BDF89A992780B50895A8E1B0E042E0E2
:1051300050E00C94D128DC01A40FB51F4150504021
:1051400048F0CB01840F951F2E910E94AC2841504E
:105150005040D0F70895262FF999FECF92BD81BD1A
:10516000F89A019700B4021639F01FBA20BD0FB6A5
:10517000F894FA9AF99A0FBE08950396272F0E9481
:10518000AC280E94AB28252F0E94AC28242F0C9419
:10519000AC280196272F0E94AC280C94AB28DC0188
:1051A000CB01FC01F999FECF06C0F2BDE1BDF89A32
:1051B000319600B40D9241505040B8F70895F894DC
:1051C000FFCF130613065A065A06BF06DC06420630
:1051D0004206E1065807690769073C17AD174417EF
:1051E0000E171217481716174C1758172217A6171D
:1051F00026175C172A17601785172E1764178C1748
:1052000034176A1772171A1750171E1754173817C2
:105210006E177C179517A41708174017B417531863
:1052200059185C1862187718771877187718771854
:1052300077187718771865186A186E187418851813
:105240008B188F18461B4C1B351B401B521B581BC1
:105250005E1BBC26E226E826E226E8263B275D27E1
:06526000E826B427C12777
:105266007002900201000000010000000000000032
:10527600040100000004050000000000000409000D
:105286000000000000280850011E0A14019720D2D1
:1052960020CB20C420BD2001E200E900EA00B500D1
:1052A600B600B700CD008301CC008A0192019401BB
:1052B6002102230224022502260227022A02B30023
:1052C600B4006F0070009F01CB019F02A002E200B4
:1052D600E900EA00B500B600B700CD008301CC00B6
:1052E6008A01920194012102230224022502260248
:1052F60027022A02B300B4006F0070009F01CB01A1
:105306009F02A0023534C6976631323336B6027331
:105316006C6176655F6D6174726978006D61737436
:1053260065725F6D61747269780073796E635F741C
:10533600696D65720044B615FC0446043104DD034C
:04534600F6030F0457
:00000001FF
