:100000000C9420030C94C9340C943D030C943D03D0
:100010000C943D030C943D030C943D030C943D0360
:100020000C943D030C943D030C94F8320C94E03393
:100030000C94AD320C943D030C943D030C943D03A1
:100040000C943D030C943D030C943D030C943D0330
:100050000C943D030C94D4320C943D030C943D035A
:100060000C943D030C943D030C943D030C943D0310
:100070000C943D030C943D030C943D030C943D0300
:100080000C943D030C943D030C943D030C943D03F0
:100090000C943D030C943D030C943D030C943D03E0
:1000A0000C943D030C943D030C943D03050109029F
:1000B000A10185020901A1000509190129081500FE
:1000C0002501950875018102050109300931158165
:1000D000257F95027508810609381581257F9501D0
:1000E00075088106050C0A38021581257F95017572
:1000F000088106C0C005010980A101850319012AF4
:10010000B700150126B700950175108100C0050CD8
:100110000901A101850419012AA002150126A002E6
:10012000950175108100C00660FF0961A101096297
:10013000150026FF00952075088102096315002629
:10014000FF00952075089102C005010906A101056F
:100150000719E029E7150025019508750181029529
:1001600001750881010507190029FF150026FF0008
:100170009506750881000508190129051500250156
:10018000950575019102950175039101C00000006C
:10019000000000000000000000000000000000005F
:1001A000000000000000000000000000000000004F
:1001B000007E0F00D4FFFFFFC700000078000000A2
:1001C00000000000002A2B280000000000000000B2
:1001D000000000000000000029000000002C1E3478
:1001E00020212224342627252E362D3738271E1F7E
:1001F000202122232425263333362E37381F0405A9
:10020000060708090A0B0C0D0E0F10111213141516
:10021000161718191A1B1C1D2F3130232D350405F4
:10022000060708090A0B0C0D0E0F101112131415F6
:10023000161718191A1B1C1D2F3130354C09025B7B
:1002400000030100A0FA09040000010301010009F4
:100250002111010001224400070581030800010962
:100260000401000203000000092111010001222203
:100270000007058203200001070503032000010990
:100280000402000103000000092111010001227B8A
:10029000000705840320000112010002000000088D
:1002A000F8A830180300010203011C03760069005E
:1002B00061006C003A0066003600340063003200D2
:1002C0006200330063000000180373006B006500D8
:1002D0006C006C0079007900650075006D006500A8
:1002E00000000C037900650075006D0065000000DA
:1002F0000403090414001A00080015001700042163
:100300001622072409280A001D001B0006001900F8
:100310000500000000002B00215221521C00180093
:100320000C00120013000B000D280E240F223321A5
:10033000110010003600370038002C002C0022522B
:10034000000000001E001F0020002100220001000C
:10035000010029002A002F002D002E0035004C003E
:10036000260200000000010001000100230024001B
:100370002500260027003000310034000100010074
:100380002702010001000100280001000100010016
:10039000000000003A003B003C003D003E00010030
:1003A0000100010001000100010001000100010045
:1003B0000100000000000100010001000100A9008F
:1003C000AA00A800010001005000520051004F0097
:1003D0000100AC00AE00AB00010001000100010013
:1003E0000000000001000100010001000100010007
:1003F00001000100010001000100010001000100F5
:1004000001000000000001000100010001000100E6
:1004100001000100010001000100010001000100D4
:1004200001000100010001000100010001000100C4
:1004300000000000010001003F05B014C6140000D8
:10044000020002003B05B014C614000003000100C6
:100450004005B014C6140000040002002505B014C5
:10046000C614B806050001004105B014C61400000A
:10047000060002002705B014C614000007000200A1
:100480003D05B014C6140000080001004205B01478
:10049000C6140000090002002905B014C614C106E4
:1004A0000A0002002B05B014C614C1060B0002009E
:1004B0002D05B014C614C1060C0002002F05B0149F
:1004C000C614C1060D0002003105B014C614C106E1
:1004D0000E0002003305B014C614C1060F0002005E
:1004E0003505B014C614C106100002003705B0145B
:1004F000C614C106110002003905B014C614C106A5
:10050000120002004305B014C614000013000200DC
:100510004505B014C6140000140001004705B014CE
:10052000C6140000150000000000E6061C100000C4
:10053000FD377A585A000004E6D6B446020021017D
:1005400016000000742FE5A3E0019800D05D003D87
:100550008889C65436C3174FE4E62A490CC51DE105
:1005600081338340C8A79C953977DC3759035B3CBE
:10057000613AD8AD12897861AF4DDE66012464D44A
:10058000CDD2949942DBCB117706F16922C53F9316
:10059000B2274CAC8F12FF07B63D0EA3D219B81884
:1005A000D9AEAA574424667E7CADBB4D5E67997177
:1005B00072838CCC416DD8017D6F845B93A5F8C7A5
:1005C0001F1A8DAA5FD4D11D923B1EA30EDE95FC8F
:1005D000E094A66AFD1F37EC6E263CC832F4ADF5F8
:1005E0000739487C845592D3DF95E1F82D7CBD30E6
:1005F00033B2BAB327DCA223E7A230B50B9812A618
:100600002E79C5FDCE03CA3B58CDEBCB8711FF42F7
:100610000453ED4FAD7DCDA2563CFB69B991E90085
:100620002C60B1DF4CAEADD40001EC0199030000A9
:10063000E336BD5DB1C467FB020000000004595AF7
:1006400011241FBECFEFDAE0DEBFCDBF11E0A0E086
:10065000B1E0E8EBFEE602C005900D92AC3CB107BC
:10066000D9F725E0ACECB1E001C01D92AE34B20781
:10067000E1F70E94EB2A0C94E0360C9400009C01F8
:100680009A9581159F4118F5F32FF270EE27832F6D
:100690008170732F74706627532F5870442734FF6E
:1006A0000CC08295807FEF2B09F08062672B09F0E8
:1006B0008064452B69F080680895EF2B09F0826013
:1006C000672B09F08460452B19F08860089580E05D
:1006D0000895CF93DF93EB010E943F03FE0109953C
:1006E000DF91CF910895282F92959F70963099F0C1
:1006F00060F4925F9F70923030F4203FB1F038F494
:1007000081E0283E38F080E008959A5FF3CF81E0E1
:10071000243FC9F7089591E0813F09F090E081E01E
:10072000283E08F080E0892B089581E008958093A9
:100730002305089580932405089521E030E001C049
:10074000220F8A95EAF780912405822B0E949A0352
:10075000089521E030E0A90102C0440F551F8A9599
:10076000E2F7CA0180959091240589230E949A039B
:100770000895292F983090F5853080F590E035E088
:10078000239F800D911D1124282F277041E001C067
:10079000440F2A95EAF723E0969587952A95E1F785
:1007A000FC01EE0FFF1FE80FF91FE15DFC4F20E099
:1007B00030E070E05191DF01CB01022E02C096952E
:1007C00087950A94E2F78170819585278423852790
:1007D0008E932F5F3F4F2330310561F70895292F06
:1007E000983078F5853068F590E035E0239F800DEE
:1007F000911D1124682F677023E0969587952A959F
:10080000E1F7FC01EE0FFF1FE80FF91FE15DFC4F60
:1008100040E050E080E0219130E0062E02C03695A5
:1008200027950A94E2F721703327042E01C0220F86
:100830000A94EAF7822B4F5F5F4F4330510559F717
:10084000089580E008959091240521E030E0F901B9
:1008500001C0EE0F8A95EAF7D90102C0AA0FBB1FAB
:100860006A95E2F7EA2B01C0220F4A95EAF7892F31
:100870008E23E81305C0892F822B0E949A030895C6
:100880002095822F8923F9CF8091DD029091DC029F
:10089000981301C008958F5F8770FACF909171040B
:1008A0008095892380937104282F2770211111C00E
:1008B000891779F090914A0592FF0BC0869586952D
:1008C00086950E94A90310927104109273041092ED
:1008D0007204089590916D04982B90936D0408957F
:1008E000982F909580916D04892380936D040895CD
:1008F00080916B04811531F010926B0410926A04A0
:100900001092690408959C01803E910509F448C045
:10091000D8F48133910509F47DC048F489329105FA
:1009200009F46DC08A9709F47CC0C9010895893320
:10093000910551F18238910539F1C597B1F7809150
:10094000490585FFF2CF29C0843E910509F447C0CF
:1009500048F4823E910599F1833E9105A9F121EE7B
:1009600030E0E3CF863E910509F444C0873E91050F
:10097000E1F68091490583FD61C090914A0591FFA0
:100980002BC024EE30E0D1CF8091490583708111D6
:1009900052C080914A0583FFC8CF29E230E0C5CF1D
:1009A0008091490580FD33C090914A0590FFBDCFED
:1009B00023EE30E084FFB9CF20E030E0B6CF809165
:1009C000490582FDF5CFB1CF8091490582FD30C048
:1009D00090914A0590FD2FC084FFA7CFEDCF809165
:1009E0004A0581FFA2CF8091490527EE30E084FDC2
:1009F000E3CF9BCF8091490583FDF7CF96CF8091C0
:100A0000490585FD1EC080914A0583FF8ECF29E3ED
:100A100030E08BCF8091490586FF87CF2AE230E016
:100A200084CF8091490586FF80CF21E330E07DCFE0
:100A300022EE30E07ACF20EE30E077CF26EE30E0C5
:100A400074CF25E330E071CF9091490592FF10C03B
:100A500041E0282F2471243009F040E031E0282FB4
:100A60002871283009F030E0431711F02CE082277C
:100A700093FF10C041E0282F2471243109F040E099
:100A800031E0282F2871283109F030E0431711F0A8
:100A90002CE0822730914A0530FF10C051E0282F0A
:100AA0002171213009F050E041E0282F28712830D1
:100AB00009F040E0541711F029E0822731FF10C0FF
:100AC00041E0282F2171213109F040E031E0282F49
:100AD0002871283109F030E0431711F029E082270E
:100AE00094FD877E08951F93CF93DF930E94830424
:100AF000EC01811522E5920708F055C0811540E50B
:100B0000940708F0D1C0803E910520F58D3C9105F9
:100B100008F0A4C0883A910570F4853A910508F070
:100B20009AC081309105D1F10497813A9105B0F1D5
:100B3000C0E0D0E033C0885A91094B97C8F7C85A33
:100B4000D0E0CC0FDD1FC15ADE4F0990D881C02DF7
:100B5000D46424C0811550E49507C0F4C11580E227
:100B6000D80708F0B7C0C83ED105C0F0CE019A95AD
:100B700081159F41E8F68D2F0E942405182FCE0184
:100B800099270E948304EC01D12B08C099270E9469
:100B90008304CC27DF70C82BD92BD06ACE01DF911C
:100BA000CF911F910895803842E59407C8F58036AB
:100BB00052E5950708F05BC0C03482E5D807D0F451
:100BC000C03292E5D90708F04BC08C2F86958695E8
:100BD00020E2829FC0011124C37021E030E0A9010E
:100BE00002C0440F551FCA95E2F7EA01C82BD92B62
:100BF000DD68D4CF8C2F86958695877050E2859FCF
:100C0000C0011124C37021E030E0A90102C0440FEB
:100C1000551FCA95E2F7EA01C82BD92BDC68BECF75
:100C2000803C52E5950758F48F71C03AD245A0F543
:100C300090E0982F8827EC01C46FD06AAFCF805C1A
:100C40009245809708F074CFDC2FCC27CC27DF713A
:100C5000C06FD06AA3CFA497D064A0CFD0659ECF39
:100C6000CF71D0E0DC2FCC27C16FD06A97CF8695AB
:100C70008695877020E2829FC0011124C37021E015
:100C800030E0A90102C0440F551FCA95E2F7EA01FE
:100C9000C82BD92BDA6882CF0E942405C82FD0E058
:100CA000DC2FCC27D0627ACF8F710E94240593E08D
:100CB000CC0FDD1F9A95E1F7CC27DF70282F30E0AD
:100CC00084FF04C050E1859F90011124C22BD32BD7
:100CD000D06964CF8D2F8F710E942405182FCE010B
:100CE00099270E948304EC01D12BDCCF80E008958A
:100CF000F894E82FE295EF70F0E041A18F7021E0C9
:100D000030E0B90102C0660F771F8A95E2F7CB0188
:100D1000962F9095942391A392A1892B82A37894E6
:100D200008959C0121158CE7380741F48091A602B3
:100D30009091A702892B11F420E030E0C9010895B9
:100D4000E6EDF3E080E090E06CEF79E242E25AE217
:100D500027E93AE277836683518740873387228782
:100D600097878687019670968830910599F7089540
:100D7000809125059091260590931401809313018D
:100D80000895E5E2F5E0848195812AE030E0B9013B
:100D90000E941B366093170186818093180182851B
:100DA0008093030184858093020186859785B9012C
:100DB0000E941B36609315018089809316018289F9
:100DC000809301018489809300010895EF92FF923E
:100DD0000F931F93CF93DF93FB018FEF9FEF44306F
:100DE000510508F45FC04091490541FB882780F90F
:100DF00090E0880F991F42FB002700F910E0000FD8
:100E0000111F000F111F802B912B40FBEE24E0F8E7
:100E1000F12C8E299F2943FB222720F9C22F50E075
:100E2000D52F53E0CC0FDD1F5A95E1F78C2B9D2B6E
:100E300044FB222720F950E1259F90011124822BA9
:100E4000932B45FB222720F950E2259F9001112486
:100E5000822B932B46FB222720F950E4259F9001FB
:100E60001124822B932B47FB222720F940E8249F53
:100E700090011124822B932B20914A05322F31703F
:100E8000932B26952170B22FBB0FA0E08A2B9B2BB2
:100E9000092E000CAA0BBB0B80839183A283B38322
:100EA00080E090E0CDB7DEB7E6E00C940C369C0114
:100EB00043E0969587954A95E1F78E719927FC0155
:100EC000E150FE4F40815181F901EF70FF2721E091
:100ED00030E002C0220F331FEA95E2F7611541F0BE
:100EE000422B532B81509E4FFC0151834083089528
:100EF0002095309542235323F5CF1092B5041092DC
:100F0000B404E4E7F4E08581811102C01482168202
:100F1000379684E0EC3AF807B1F70895AC013091C8
:100F2000B7046091B604232F621301C00895822F85
:100F300090E0FC01EE0FFF1FE455FB4F0190F081A4
:100F4000E02DE417F50791F467E0649FF001659FD9
:100F5000F00D1124EC58FB4F41E044832313E6CFFE
:100F60000196837099278093B70408950196282FDE
:100F70002370DACFFC018481862381110AC082812B
:100F80008115B9F06823908593FF05C081E0611158
:100F90000FC080E00895282F22952F708F70282B86
:100FA000962F92959F706F70962B81E02913F1CF49
:100FB000089581E00895282F35EB2303C001112403
:100FC00097FF04C080589109892F089580589F4F3A
:100FD000FBCF8091400360912D0570912E0580FF1D
:100FE00014C020910301269FC001279F900D11245A
:100FF000BC01769567957695679560387105F0F533
:1010000061157105E9F1862F089581FF0BC02091CC
:101010000301269FC001279F900D1124BC017695E6
:101020006795EBCF82FF09C0809103019B01829FEE
:10103000B001839F700D1124E0CF80913F03811593
:10104000E1F29091020120910301891738F0CB0160
:10105000289FB001299F700D1124CFCF289F9001A8
:101060001124269FA001279F500D369F500D11245B
:10107000692F70E0CA010E941B36BFCF8FE7089529
:1010800081E008958091400380FF0CC060910101D0
:1010900070E075956795759567956115710549F1CE
:1010A000862F089581FF06C06091010170E075955B
:1010B0006795F3CF6091010182FD0BC090913E03D3
:1010C0009115A1F06091000180910101961738F00F
:1010D000682F70E06038710500F38FE70895899FED
:1010E000C001112470E00E942F36F4CF61E070E05F
:1010F000D7CF81E00895FA01309709F00995089556
:101100008091C602811559F0E091D202F091D3028C
:10111000309729F00190F081E02D0995089580E045
:101120000895A3E0B0E0E7E9F8E00C94F4359C0101
:101130008091FC019091FD0182179307A1F03093FB
:10114000FD012093FC01E091D202F091D30230978F
:1011500051F083E089833B832A830084F185E02D6D
:10116000CE01019609952396E2E00C941036A3E097
:10117000B0E0EDEBF8E00C94F4359C018091FA01BD
:101180009091FB0182179307A1F03093FB0120930C
:10119000FA01E091D202F091D302309751F084E04D
:1011A00089833B832A830084F185E02DCE0101965B
:1011B00009952396E2E00C9410369C01FC013296CE
:1011C0008FEF90E04191461751F08F3F19F4411194
:1011D00001C0892F9F5F9630A9F78F3F09F40895CA
:1011E000280F311D87FD3A95F90162830895E0EDDE
:1011F000F1E09191891302C0DF011E9291E0E63D7A
:10120000F907B9F708958091050108952FB7F8946B
:101210008091F6019091F701A091F801B091F90148
:101220002FBF08958091270590912805892B91F073
:101230000E9406092091690430916A04AC01421BA6
:10124000530B9A0181E040912705509128052417FE
:10125000350708F480E00895962F20914A0522FF73
:1012600010C0682F660F660F660F692B60937104BC
:101270000E949D030E940609909373048093720458
:1012800008950E949D03089590916B04292F2823AF
:10129000211561F08095892380936B04811539F0C5
:1012A0000E9406098093690490936A04089580E07F
:1012B00090E0F8CFCF93C82F80914A0582FF0CC0F1
:1012C00080916B048C1741F00E94060990936A0488
:1012D00080936904C0936B04CF9108950E9406091E
:1012E0002091430330914403232B211521F0809357
:1012F0009702909398022091450330914603232B47
:10130000211521F08093950290939602E091D202EC
:10131000F091D302309749F082E080934103068038
:10132000F781E02D81E493E009950895611509F4B2
:101330004BC0E3E3E80FE33150F4F0E0EE51F94C39
:101340000C9443360E94E9078195809344030E94E0
:101350006E0908950E94E907F8CF0E94E907819578
:1013600080934303F4CF0E94E907FACF0E9442081A
:1013700080934503ECCF0E9442088195F9CF0E94EB
:101380004208819580934603E2CF0E944208FACF3B
:10139000815D990B21E030E001C0220F8A95EAF7C8
:1013A00080914203822B80934203D1CF80914003EE
:1013B000816080934003CBCF809140038260F9CF5E
:1013C000809140038460F5CF409143038D3C59F4F4
:1013D0008091440387FF0DC010924403411559F4D6
:1013E00010923F0308C08E3C81F48091440318168C
:1013F0009CF3411581F08091450390914603892B20
:101400008111A5CF10923E03A2CF8F3C41F447FF3C
:10141000F0CF10924303809144038115E0CF803DCB
:1014200019F41416B4F3E5CF90914503893D29F4DE
:101430001916FCF610924503DCCF8A3D19F497FF8C
:10144000D8CFF8CF909146038B3D29F497FFD1CFA9
:1014500010924603CECF8C3D19F41916CCF3C9CFA8
:101460009FE2980F983090F4815D990B21E030E075
:10147000B90102C0660F771F8A95E2F7CB0180950C
:1014800090914203892380934203B3CF8D3D31F481
:10149000809140038E7F80934003ABCF8E3D21F43B
:1014A000809140038D7FF7CF8F3D09F0A2CF8091CF
:1014B00040038B7FF0CF2FB7F8946091F6017091C5
:1014C000F7018091F8019091F9012FBF0895CF9213
:1014D000DF92EF92FF928091C602811559F00E942F
:1014E0005B0A6B017C01C701B601FF90EF90DF90B2
:1014F000CF9008950E945B0AC090C802D090C902A4
:10150000E090CA02F090CB02C60ED71EE81EF91E6C
:10151000EACFCF92DF92EF92FF92CF93DF93D82F53
:10152000C92FC090D003D090D103E090D203F090A7
:10153000D3030E945B0A6C197D098E099F09643FE1
:1015400071408105910518F10E945B0A6B017C01D5
:1015500082E390E0A0E0B0E0C0929102D0929202CB
:10156000E0929302F092940280938D0290938E0207
:10157000A0938F02B0939002D093CE03C093CF0379
:10158000DF91CF91FF90EF90DF90CF90089584EF9F
:1015900091E0A0E0B0E0E0CF87E797E79093010803
:1015A0008093000888E19AE00FB6F894A89580939C
:1015B00060000FBE90936000FFCF0895FC019B0177
:1015C0008091EC019091ED018617970740F0672B11
:1015D00029F48091E8008E778093E800C90140E00B
:1015E000009741F4411106C08091E80082FF2FC0AE
:1015F00080E008952091A8022115A9F12530A9F1D4
:101600002091E80023FD2DC02091E80022FDECCFC1
:101610002091E80020FFE4CF3091F3002091F20008
:10162000009719F02830310558F041E02830310595
:1016300009F040E02091E8002E772093E800D0CF19
:1016400041914093F10001972F5F3F4FE9CF809187
:10165000A802811541F0853041F08091E80083FFB8
:10166000C3CF81E0089582E0089583E008958091DA
:10167000E60187FF13C08091E80082FF06C08091D9
:10168000E8008B778093E80008958091A80281118B
:10169000F2CF08958091A8028115D9F38091E800D6
:1016A00080FFF8CF8091E8008E77ECCF2091E400A6
:1016B0003091E50095E6A9012091EC00822F817020
:1016C00020FF06C08091E80080FF06C080E00895FA
:1016D0002091E80022FD1AC08091A802811589F0AE
:1016E000853089F08091EB0085FD0FC02091E400EA
:1016F0003091E50042175307F9F29A95E1F684E03C
:10170000089582E0089583E0089581E00895E8ED6A
:10171000F0E080818E7F80831092E2001092DA00E8
:101720001092E100A0EEB0E08C9181608C938081FA
:101730008F77808319BCA7EDB0E08C918E7F8C935E
:1017400080818F7E80831092E5010895FC01AC01B9
:101750004C5F5F4F8FEF61E39191892728E030E084
:10176000982F990F87FF09C0892F86272150304075
:10177000B9F7E417F50781F70895892FF7CF982F68
:101780009093E900891771F07091EC002091ED00C1
:101790005091F00021FD09C09F5F973089F7809339
:1017A000E9000895762F242F50E03091EB003E7F22
:1017B0003093EB003091ED003D7F3093ED003091A0
:1017C000EB0031603093EB007093EC002093ED0060
:1017D0005093F0002091EE0027FDDECF0895A0E0A9
:1017E000B0E0E5EFFBE00C94EE35C8EDD0E0888189
:1017F0008F7E8883E7EDF0E080818160808384E0E4
:1018000082BF81E08093E50188818E7F888302EE2C
:1018100010E0F80110821092DA0081EEC82ED12C6F
:10182000F601108288818F77888388818068888319
:1018300088818F7D888319BC1092A8021092E401E0
:10184000109283021092E30190EEE92EF12CF70141
:1018500080818B7F808388818160888342E060E023
:1018600080E00E94BF0BF60180818E7F8083F801AB
:10187000808181608083808188608083F70180819E
:101880008E7F8083888180618883CDB7DEB7E8E072
:101890000C940A369C012115310509F408958FE94D
:1018A0009FE00197F1F700C0000021503109F3CF0C
:1018B0000F931F93CF93DF938B01EA019091A802BE
:1018C000943059F58093E9008FEF9091E80095FDF1
:1018D00006C095ED9A95F1F700008A95B1F78091D1
:1018E000E80085FF1AC00E94560B811111C080913B
:1018F000E80085FD06C08091E8008E778093E800BF
:10190000F2CFF80181918F018093F100219779F74F
:101910008091E8008E778093E800DF91CF911F914E
:101920000F910895CF93DF93D82FC92F48E050E04F
:10193000682F792F81E00E94580C88E0ED2FFC2F52
:10194000AEEEB1E001900D928A95E1F7DF91CF9173
:101950000895BC0146E050E084E00E94580C0895D0
:10196000BC0143E050E084E00E94580C0895A0E0E0
:10197000B0E0EDEBFCE00C94EC35182F092FB62EFF
:10198000A72E7A018091E0019AE0C92ED12C8A30ED
:1019900018F0CC24C394D12CC1E0D0E06B2D7A2D6B
:1019A000812F902FF7010995811116C02196CC1631
:1019B000DD0694F0CC9FC001CD9F900D900D1124B9
:1019C00020E030E045E34A95F1F700002F5F3F4FFC
:1019D00028173907B9F7E2CFCDB7DEB7EAE00C94A4
:1019E000083690914A0592FB222720F9281779F0B2
:1019F00080FB92F990934A056091490570914A05E0
:101A000084E090E00E94C23682E00E944E04089575
:101A10001F93CF93DF93962F122F632F8430D8F428
:101A20009830C8F44530B8F4C42FD0E0CC0FDD1F97
:101A30002AE0929FC00DD11D112490E5899FC00D11
:101A4000D11D1124CE0188960E94A436612FCE01AB
:101A500089960E94A436DF91CF911F910895CF936C
:101A6000DF93CCE7D2E060E0CE010E94A43621965D
:101A7000C11584E0D807B9F7DF91CF910895CF93CE
:101A8000C82F66E2811101C06FEF84E290E00E94EE
:101A9000A43664E8C11101C06FEF85E290E00E94B6
:101AA000A43669E1C11101C06FEF86E290E00E94A7
:101AB000A436CF9108950F931F93CF93DF9305E240
:101AC00015E0C8E6D1E0CE010E948636F8016191AA
:101AD0008F01681719F0CE010E94A4362196CC38E8
:101AE000F1E0DF0781F7DF91CF911F910F9108950A
:101AF0000F931F93CF93DF9305E215E0C8E6D1E083
:101B0000CE010E948636F80181938F012196CC3850
:101B1000F1E0DF07A9F7CEE3D4E0FE0185919491CF
:101B2000009711F0FC0109952C96F5E0CA33DF0708
:101B3000A1F7DF91CF911F910F9108950F931F93FC
:101B4000CF93DF93843030F5683020F5453010F5C1
:101B5000C42FD0E0CC0FDD1F2AE0629FC00DD11D45
:101B6000112430E5839FC00DD11D1124CE0188962C
:101B70000E948636082F10E0102F0027CE0189968C
:101B80000E9486369801282BC901DF91CF911F91C1
:101B90000F91089580E090E0F8CF462F672F2091B5
:101BA000CE023091CF02232B91F4703F39F4403FA5
:101BB00071F48091CC029091CD020895783038F480
:101BC000453028F4843018F40E949E0D089580E07A
:101BD00090E00895A0E0B0E0E0EFFDE00C94EF3578
:101BE0007C010091240580912305082BC3E0D0E0FF
:101BF00010E0C8010C2E02C0959587950A94E2F773
:101C000080FD09C02197A8F7D12C8D2DCDB7DEB767
:101C1000E7E00C940B36DC2EB7018C2F0E94CD0D23
:101C20000E947305019771F3F0CFCF93DF93D82F04
:101C3000C92F0E94EA0D6D2F7C2F0E94CD0D0E94AE
:101C40007305DF91CF910895FC018481811571F0B6
:101C500087819085009729F00E9473050E94730385
:101C60000895808191810E94150EF8CF80E008953B
:101C70001F93CF93DF93182FD92F611599F041153A
:101C800089F00E94EA0DC82F682F812F9D2F0E9496
:101C9000B903612F7D2F8C2F0E94CD0DDF91CF9145
:101CA0001F9108950E94EF03C82FF3CFCF93DF93C6
:101CB000FC01462FC781D085209731F46581808152
:101CC00091810E94380EEC01CE01DF91CF910895F1
:101CD00084E290E00E948636863289F485E290E0C4
:101CE0000E948636843859F486E290E00E94863657
:101CF00091E0893109F090E0892F8170089580E0AA
:101D0000FCCFCF93DF93C0916D0480917004C82BFA
:101D100080916B048115E9F0809127059091280549
:101D2000892B29F00E94120981110E947804D09118
:101D30006B0420E080ED91E0FC01308101963111CF
:101D40002F5F31E0863D9307B9F721110E94780497
:101D5000CD2B8091520380958C2390915103892B38
:101D60008093CE0148E050E064ED72E08EEC91E0AB
:101D70000E945936892BA9F088E0EEECF1E0A4ED41
:101D8000B2E001900D928A95E1F7E091D202F091D4
:101D9000D302309731F00280F381E02D8EEC91E098
:101DA0000995DF91CF910895CF93C82F8115A9F0A0
:101DB0008CEF8C0F813A98F4E0EDF1E086ED91E044
:101DC0002191C217D9F18E179F07D1F76C2F8EEC96
:101DD00091E00E94DD080E94810ECF91089580E27B
:101DE0008C0F883048F4C77081E001C0880FCA9515
:101DF000EAF70E946A04EFCF8BE58C0F833038F44A
:101E00002C2F2452330BC9010E949108E6CFE8E53C
:101E1000EC0FEB3150F4F0E0EE0FFF1FEB56FE4FEE
:101E2000808191810E94B708D8CF83E38C0F8331E2
:101E3000A0F661E08C2F0E949609CFCF8C2F0E94D4
:101E4000F7080E94810EC2CFCF93DF93EC01805E32
:101E50009109089720F06AEC7FE0209711F46CEB71
:101E60007FE0CE010E9469038C2F0E94D40EDF9187
:101E7000CF9108959C01611529F0809170048260D2
:101E800080937004C90190528115904308F4332760
:101E9000C9010E94240F0895811581F19CEF980FCC
:101EA000913A28F40E94F7080E94810E089590E26A
:101EB000980F983050F4877091E001C0990F8A957F
:101EC000EAF7892F0E947004EFCF9BE5980F9330BB
:101ED00028F480E090E00E949108089598E5980F1A
:101EE0009B3128F480E090E00E94B708089593E3C6
:101EF000980F933118F460E00E9496090895CF93EB
:101F0000DF93EC010E944C0FCE01805E910908978F
:101F100020F064ED7FE0209711F463EC7FE0CE01C8
:101F20000E946903DF91CF9108950F931F93CF9380
:101F3000C82F8B010E94D40E0115110539F48C2F86
:101F40000E944C0FCF911F910F9108958FE99FE050
:101F50000197F1F700C0000001501109EDCF609129
:101F6000450570914605893321F0609143057091D4
:101F700044050E94950F0895811521F00E946A047E
:101F80000E94810E0895811521F00E9470040E9424
:101F9000810E0895811539F090917004892B8093FA
:101FA00070040E94810E0895811541F080959091F2
:101FB00070048923809370040E94810E0895CF934A
:101FC00010926D04C6E0E0EDF1E0DF018C2F1D9270
:101FD0008A95E9F780E090E00E94910880E090E027
:101FE0000E94B708109270040E94810EE1E4F3E0B1
:101FF000DF011D92CA95E9F710923F0310923E034C
:10200000109240030E946E09CF9108950E94DF0F45
:102010002FEF84E39CE0215080409040E1F700C026
:10202000000088E19AE00FB6F894A89580936000CC
:102030000FBE90936000FFCFCF93DF93FB018FEF34
:102040009FEF44305105B8F0D081C1810E94DF0F6D
:10205000D0934905C37080914A058C7FC82BC093EB
:102060004A056091490570914A0584E090E00E941C
:10207000C23680E090E0DF91CF910895E5E2F5E08F
:10208000128E138E8FEA90E09183808325E0248F57
:1020900088E893E1938382838AE090E09583848348
:1020A00044E150E05783468348E050E05187408741
:1020B000938782876EE170E075876487978786874C
:1020C00080E590E0918B808B538B428B48E250E00F
:1020D000558B448B42E350E0578B468B48EC50E0E5
:1020E000518F408F158E178E168E91A380A322A339
:1020F0000E945B0D0E94DF0F10924A051092490565
:1021000080E0846080934A0560E074E084E090E0C1
:102110000E94C2360E94780D0895AAE2B0E0E3E979
:10212000F0E10C94F33586EE91E0FC0101962091EC
:10213000F100208321E08E3E9207B9F78091E701FC
:10214000893009F45AC0C8F4823009F4B7C083302A
:1021500009F486C0813091F18091E80083FFEBC0E3
:102160008091E6019091E7019A3008F0E4C0E92FF0
:10217000F0E0EB50F94C0C9443368A3009F48DC0F2
:102180008B3051F78091E601813231F78091EA017D
:102190009091EB01892B01F78091E800877F809374
:1021A000E8000E94370B81E09091E801911101C095
:1021B00080E0809306010E94DF0FCECF8091E60180
:1021C000813A51F68091E800877F8093E800809102
:1021D000EA019091EB01892B61F060E080E090E0F2
:1021E00070E00E94DE0A8091E8008B778093E8001F
:1021F000B3CF68E08EEE91E0F3CF8091E6018132BB
:1022000009F0AACF8091EA019091EB018D7F892B93
:1022100009F0A2CF8091E800877F8093E800809149
:10222000E80082FF18C09091F3008091F2000297BD
:1022300031F48091F100813011F0863021F48091E9
:10224000F100809305018091E8008B778093E8008E
:102250000E94370B81CF8091A8028111E0CF7CCF03
:102260008091E601813A09F077CF8091EA0190915F
:10227000EB01892B09F070CF8091E800877F809374
:10228000E8008091E80080FFFCCF809106018093F8
:10229000F1008091E8008E77D9CF8091E6018132FC
:1022A00009F05ACF8091E800877F8093E8000E9470
:1022B000370B8091E901809304014ECF8091E601B4
:1022C000813A09F049CF8091E800877F8093E80048
:1022D0008091E80080FFFCCF80910401D8CF803846
:1022E00089F0823841F58091EA018F70873018F5C6
:1022F0008093E9008091EB0085FB882780F910929C
:10230000E90006C080918302880F9091E301892B38
:102310009091E800977F9093E8008093F1001092ED
:10232000F1008091E8008E7723C0811116C0809162
:10233000E801813011F18091E80083FF0AC08091AB
:10234000E800877F8093E8008091EB0080628093B3
:10235000EB00AA96E3E00C940F36823061F780918F
:10236000E801811589F01092E9008091E800877FEB
:102370008093E8000E94370BDECF81E0933009F0B4
:1023800080E080938302EFCF8091EA018F702FEF7E
:10239000280F263080F68093E9002091EB0020FF83
:1023A000E2CF933031F48091EB0080628093EB00B8
:1023B000DACF9091EB0090619093EB0021E030E058
:1023C000A90102C0440F551F8A95E2F74093EA0025
:1023D0001092EA008091EB008860E8CF8111ABCFCA
:1023E0001091E8011F778091E3008078812B809322
:1023F000E3008091E800877F8093E8000E94370B1C
:102400008091E80080FFFCCF8091E300806880939A
:10241000E30083E0111101C082E08093A8028BCF1A
:102420008058823008F087CF8091E8019091E901CF
:102430008C3D53E0950799F583E08A838AE289838E
:102440004FB7F894DE01139620E03EE051E2E32F0F
:10245000F0E050935700849120FF03C082958F7065
:102460003F5F8F708A30C8F0895C90E08D939D93B8
:102470002F5F243161F74FBF8091E800877F809301
:10248000E8006AE270E0CE0101960E94DE0A8091C7
:10249000E8008B778093E8004ECF805DE6CF292F50
:1024A00033272330310509F44EC078F5213031054A
:1024B00009F488C08BE590E0EDE3F2E022303105CD
:1024C00009F039CF2091E800277F2093E800209180
:1024D000EC013091ED018217930708F49C0140E074
:1024E0002115310509F073C0411171C08091E800D8
:1024F00082FDCDCF8091A802811549F2853039F255
:102500008091E80083FFF2CFC2CF8091EA019091E1
:10251000EB012132310509F446C02232310509F0C0
:102520000ACF8330910508F006CFFC01EE0FFF1FA4
:10253000E85BFE4F0190F081E02D8B5B9E4FDC014C
:102540008C9190E010C09C013327823021F1233020
:10255000310568F4232BB9F4E0EFF2E0E4918E2F1B
:1025600090E0E0EFF2E0009709F4E5CEABCF233046
:10257000310509F0E0CEEAEAF2E0E4918E2F90E036
:10258000EAEAF2E0F0CFE2EEF2E0E4918E2F90E0A2
:10259000E2EEF2E0E8CFE8ECF2E0E4918E2F90E09A
:1025A000E8ECF2E0E0CF8330910508F0C4CEFC0106
:1025B000EE0FFF1FE25BFE4F0190F081E02D89E0FE
:1025C00090E080CF82E190E0E8E9F2E07BCF80917B
:1025D000A802811509F45BCF853009F458CF8091AA
:1025E000E80083FD54CF8091E80082FD7FCF809189
:1025F000E80080FF75CF9091F3008091F2002115E3
:10260000310519F08830910550F041E0089709F044
:1026100040E08091E8008E778093E80061CF44919C
:102620004093F1003196215031090196E8CF80386E
:1026300009F081CE8091E800877F8093E800809147
:10264000E4018093F1006DCE811175CE1091E80107
:10265000123008F070CE8091E800877F8093E80008
:102660001093E4010E94370B1115F9F084E0809378
:10267000A80242E061EC81E00E94BF0B42E261EC03
:1026800084E00E94BF0B42E261EC82E00E94BF0B3B
:1026900042E260EC83E00E94BF0B8091A80284308C
:1026A00051F482E08093070146CE8091E30087FDDC
:1026B000DDCF81E0DCCF81E0F5CF80913A01877FEB
:1026C00080933A01909170049D7F9093700484FFF1
:1026D00006C08F7E80933A0182E00E946A04809156
:1026E0003A0185FF06C08F7D80933A0180E20E9407
:1026F0006A040E94810E0895CF92DF92FF920F9399
:102700001F93CF93DF93EC018B01F42E80913A015C
:1027100082FF65C0C0905C04D0905D04CC16DD06DD
:1027200019F0209709F05BC080913A018B7F80936C
:102730003A01C1E081FD10C080915A0490915B0480
:102740009801281B390BC1E080911301909114016D
:102750002817390708F4C0E080913A01C0FB81F9DD
:1027600080933A016C2FC6010E94570780916D0437
:1027700081FF08C080913A01806180933A0182E034
:102780000E94700480916D0485FF08C080913A0119
:10279000806280933A0180E20E9470046C2FC6012F
:1027A0000E943A0FF11431F08091400585FF02C07C
:1027B00086FF29C080914305909144050E944A0CF0
:1027C00080915C0490915D049C013052211530434E
:1027D00008F499270E947F0F0E945D1310C0CE015C
:1027E000905281159043B8F4CE0199270E947F0F33
:1027F00080915C0490915D04C817D90769F3109328
:102800005B0400935A04DF91CF911F910F91FF90C9
:10281000DF90CF900895CE01E9CFCF93DF93EC0105
:102820004A855B856E857F850E947B089B8190959C
:10283000809170048923809370048C810E947004BD
:102840000E94810E86E0FE0111928A95E9F7DF91E0
:10285000CF910895CF93DF93EC018D8181FD14C05A
:1028600082608D83809170049B81892B809370049A
:102870008C810E946A040E94810E488559856E856C
:102880007F85CE010E947B08109257041092560457
:102890008D8180FD03C0CE010E940D14DF91CF9188
:1028A00008951F93CF93DF93182FA091CC03B0917D
:1028B000CD03109709F44AC01092CF031092CE03B3
:1028C00010925203109251031696CD91DC911797F6
:1028D000CE019A9581159F4108F4D07ED1E0C111B7
:1028E00001C0D0E01996ED91FC911A97309731F024
:1028F0001B966D917C9180E00995D823D11539F014
:102900008CEF8C0F813A30F58C2F0E94F70811154F
:10291000A9F0E091CC03F091CD03808584FD0EC039
:102920008091CB03811551F0808191819C012150D0
:1029300031092F333E4710F40E94890A0E94810E0C
:102940001092CD031092CC031092CB03DF91CF9164
:102950001F9108950E94810E8C2F0E944C0FD7CF9B
:102960009C01CB01DA01F901329645915491A417EB
:10297000B50748F0F9013496659174910E94663666
:1029800080E090E008958FEF9FEF08959C01DA01B9
:102990000296FC0145915491FC0185919491A817F0
:1029A000B90758F0F9013496859194910E946636E2
:1029B0000E945B0D80E090E008958FEF9FEF0895F7
:1029C000ACE0B0E0E6EEF4E10C94E735FE013196C0
:1029D00088E0DF011D928A95E9F784E5E82E81E021
:1029E000F82E8F013F01AA24A394B12C2DE5822E4D
:1029F00021E0922EF70181917F018F3F09F43EC0C3
:102A0000F894E82FE295EF70F0E021A18F70A50116
:102A100002C0440F551F8A95E2F7CA01922F982BE6
:102A200091A392A18095892382A3789400C0E8E5C0
:102A3000F1E031E0512C21912F3F79F0A22FA295A6
:102A4000AF70A05EB0E08C9190E02F7002C09595C1
:102A500087952A95E2F780FF81C080E0582A330FDE
:102A60008E169F0641F7F70182918F3F11F00E9469
:102A7000780650EA5A95F1F7D8015C920F5F1F4F24
:102A8000B8E5EB16B1E0FB0609F0B4CF48E050E042
:102A9000B30188E792E00E9459366C01892B41F01E
:102AA00088E0F301A8E7B2E001900D928A95E1F782
:102AB0000091810210E002561D4FC114D10409F4A7
:102AC0004FC081E08093DF010E9406099093DE01F0
:102AD0008093DD018091C602811509F49CC07E01BE
:102AE000E9E0EE0EF11C84E0D7011D928A95E9F72A
:102AF0008091E0018A3008F057C043E657E1B70102
:102B0000C8010E94B70C811509F473C049E058E16F
:102B1000B701C8010E94B70C811509F46AC048E0EA
:102B200057E1B701C8010E94B70C811509F461C0D3
:102B30001092E0018091800290E044E050E0B70103
:102B400082569D4F0E94593621E02093DC01892B4B
:102B500009F041C02C96EFE00C940336832F7ECF12
:102B60008091DF01811509F4B5CFE090DD01F0908F
:102B7000DE010E9406098E199F09059708F4AACF65
:102B800044E050E068E772E0C8010E945936892BA2
:102B900041F084E0E8E7F2E0D80101900D928A95D7
:102BA000E1F71092DF0196CFC090DA01D090DB01FF
:102BB0000E9406098C199D09843F914008F09DCF21
:102BC0008091DC01811531F284E0F70111928A9540
:102BD000E9F71092DC01E0918002F0E0E256FD4F4F
:102BE00089859A85AB85BC8580839183A283B383D5
:102BF000B1CF8091E0018F3F39F40E940609909394
:102C0000DB018093DA01DCCF8F5F8093E0018A30B3
:102C100008F490CFF2CFE0908002F12CA701425649
:102C20005D4F7A01F80180819181A281B381809307
:102C3000B2029093B302A093B402B093B50282EBB8
:102C400092E00E94A60B8093B1028091B60290910F
:102C5000B702A091B802B091B902F70180839183C5
:102C6000A283B383C090BA02D090BB02E090BC02B2
:102C7000F090BD028091D6019091D701A091D8012A
:102C8000B091D901C816D906EA06FB0609F462CF4D
:102C9000C092D601D092D701E092D801F092D9012A
:102CA0000E945B0AC61AD70AE80AF90AC092C8024B
:102CB000D092C902E092CA02F092CB024BCFA0E0C0
:102CC000B0E0E5E6F6E10C94ED35EC018881811584
:102CD000F1F0813009F042C08981813029F48A8184
:102CE00023960E94AF0FF2CF823029F48A81239677
:102CF0000E94D40EEBCF833029F48A8123960E9460
:102D00004C0FE4CF843041F022968111DFCFCDB754
:102D1000DEB7E9E00C9409368A81239620E030E0A2
:102D20009AE0682F6053770BAB016A30710560F051
:102D30002115310551F3EFE9FFE03197F1F700C0BC
:102D4000000021503109F4CF929FB001939F700D84
:102D500011249A01260F371F8991E3CFE82FF0E065
:102D6000E354FE4FB490282F26952695269530E003
:102D7000F901E355FE4FE4908770F12C082E02C054
:102D8000F594E7940A94E2F7E0FAEE24FF24E0F8E1
:102D9000F901E356FE4FC490D12C082E02C0D59401
:102DA000C7940A94E2F7C0FACC24DD24C0F8F901F4
:102DB000E357FE4F049110E002C0159507958A95E0
:102DC000E2F701701127E114F10419F081EE0E947D
:102DD000D40EC114D10419F086EE0E94D40E60E026
:102DE00070E08B2D0E94950FC114D10419F086EE6E
:102DF0000E944C0FE114F10419F081EE0E944C0F77
:102E00000115110519F08CE20E94AF0F21965ECFDB
:102E1000CF92DF92EF92FF921F93CF93DF9300D078
:102E200000D0CDB7DEB7C090A902D090AA02E09042
:102E3000AB02F090AC020E945B0A6C197D098E090E
:102E40009F0911E0643671058105910578F10E94B2
:102E5000670ADC01CB010296A11DB11D89839A830B
:102E6000AB83BC8380913201909133018F549D4F8D
:102E700020913101422F50E0253010F044E050E025
:102E8000BE016F5F7F4F0E94663683E090E00E9434
:102E90007035182F811551F00E945B0A6093A902CA
:102EA0007093AA028093AB029093AC02812F0F9093
:102EB0000F900F900F90DF91CF911F91FF90EF90A7
:102EC000DF90CF9008958F929F92AF92BF92EF9232
:102ED000FF921F93CF93DF9300D000D00F92CDB716
:102EE000DEB77B0180E090E00E947035182F8115DD
:102EF00009F464C080911C01482F50E0811511F045
:102F000041E050E060911D0170911E016F547D4FB2
:102F1000CE0105960E9466368090C2029090C30250
:102F2000A090C402B090C5020E945B0A681979099A
:102F30008A099B09643671058105910538F482EB95
:102F400092E00E94A60B9D818917C1F181E090E07B
:102F50000E947035811509F43FC080912401482FEB
:102F600050E0853010F044E050E060912501709110
:102F700026016F547D4FCE0101960E94663682EB8A
:102F800092E00E94A60B9D81891326C00E945B0AD5
:102F90006093C2027093C3028093C4029093C502EF
:102FA00089819A81AB81BC818093BE029093BF02DC
:102FB000A093C002B093C10281E00FC08091B20221
:102FC0009091B302A091B402B091B50289839A8323
:102FD000AB83BC831111E4CF80E04091BE025091DD
:102FE000BF026091C0027091C102F701408351831A
:102FF000628373830F900F900F900F900F90DF916B
:10300000CF911F91FF90EF90BF90AF909F908F90C6
:103010000895A0E0B0E0EFE0F8E10C94EE35D82F91
:10302000C92F44E050E066EB72E00E9459368C01F3
:10303000C090AD02D090AE02E090AF02F090B0022E
:103040000E945B0A6C197D098E099F09643671051F
:103050008105910518F40115110511F180912A01DE
:1030600090912B018F549D4F20912901422F50E0C8
:10307000253010F044E050E06D2F7C2F0E94663622
:1030800082E090E00E947035811559F00E945B0A41
:103090006093AD027093AE028093AF029093B00242
:1030A00081E0CDB7DEB7E8E00C940A36AEE1B0E0DF
:1030B000ECE5F8E10C94E935A090A602B090A702E7
:1030C00081E090E09093A7028093A602812C912C3E
:1030D000E12C6401F12C15C0F80125913491472DA4
:1030E0006F2D8E2D0E94080D0E5F1F4F739485E08B
:1030F0007812F2CFA5E0CA0ED11CF394B8E0FB160B
:1031000039F08601000F111F0C501D4F712CE4CFB8
:10311000E39488E2880E911CA4E0EA12DACF0E94C0
:103120003E101A8219821C821B821E821D82188602
:103130001F8288EC90E09A8789870CE811E04AE0CA
:1031400050E0B801CE0101960E94C836065F1F4FBD
:103150000C3DB1E01B0799F7FE013B968AE0DF01C9
:103160001D928A95E9F77F014AE050E0B801C70156
:103170000E94C836065F1F4F0C32B2E01B07A1F752
:10318000FE01759689E0DF011D928A95E9F78FEFC0
:103190009FEF9A8F898F87E08E8F7F014AE050E002
:1031A000B801C7010E94C836065F1F4F0C37B2E056
:1031B0001B07A1F7B092A702A092A6026E96EDE0BF
:1031C0000C94053680E00E943F0D60E087E290E0BD
:1031D0000E94A4360E9456180E942F0D81E00E9482
:1031E0003F0D0895AAE0B0E0E8EFF8E10C94EE3569
:1031F000E0E2F2E080E5DF011D928A95E9F7E4E77D
:10320000F4E088E3DF011D928A95E9F780E2C82E99
:1032100082E0D82E7F010CED11E0F701D182C0824F
:103220004AE050E0B801CE0101960E94763688E06F
:10323000FE013196D60101900D928A95E1F78985BC
:103240009A85D70113969C938E931297BAE0CB0E72
:10325000D11CE7E0EE0EF11C065F1F4F0C32F2E0CE
:103260001F07D9F62A96E8E00C940A36AAE0B0E0E7
:10327000ECE3F9E10C94EC3503E513E08CE2E82E85
:1032800082E0F82E97E0B92E2FE1C22E22E0D22E56
:10329000AA24A3944AE050E0B701CE0101960E940F
:1032A0007636F8013896DF018B2D1D928A95E9F765
:1032B00089819A81D80111969C938E938F81129661
:1032C0008C9312978D8113968C93139788851496FF
:1032D0008C931497898515968C9315978B819C8177
:1032E00017969C938E9316978A8587FD04C01E9629
:1032F000DC92CE921D9780FF02C0F801A08681FF6C
:1033000007C0D80118969C911897926018969C93C4
:1033100082FF04C0F80190859460908783FF07C006
:10332000D80118969C911897986018969C9384FFE2
:1033300004C0F80190859061908785FF07C0D8018F
:1033400018968C911897806218968C93BAE0EB0EC1
:10335000F11C015F1F4FECE7EE16E2E0FE0609F0FC
:1033600099CF2A96EAE00C940836282FCB01283012
:1033700070F44AE0249F90011124B90164577E4FF4
:103380004AE050E00E94763680E090E008958FEFAA
:103390009FEF0895AAE0B0E0E0EDF9E10C94F43578
:1033A0009C0197558115914070F4BE016F5F7F4F6E
:1033B000822F0E94B519892B31F489859A852A9626
:1033C000E2E00C94103680913D0590913E05F7CFD8
:1033D000A0E0B0E0EEEEF9E10C94EF35162FD72F18
:1033E000C42FD22E8115A9F0409367040E940609CC
:1033F0009093E2018093E101C77081E001C0880FE2
:10340000CA95EAF70E94BC0FCDB7DEB7E7E00C948F
:103410000B3690916704491338C0E090E101F090B9
:10342000E2010E9406099C012E193F097901812FB2
:103430009D2F0E94CA19E816F90638F5D0E2DD0D75
:10344000CD15A1F0C77011E0812F01C0880FCA957A
:10345000EAF70E94C30FD83048F48D2D877001C061
:10346000110F8A95EAF7812F0E94BC0F802F0E94CE
:10347000AF0FD83048F62D2D277081E001C0880F9E
:103480002A95EAF70E94C30FBFCFC77081E001C041
:10349000880FCA95EAF7F6CFAFE0B0E0E2E5FAE1CF
:1034A0000C94E4357C01DC0114968C91811509F4AF
:1034B00068C161E0C7010E94560E8C01F701858149
:1034C000811531F18091560490915704009701F1D4
:1034D00008171907E9F0FC01FF27887F9927892B36
:1034E00009F067C064E0EE0FFF1F6A95E1F7EA524A
:1034F000FC4F85818460858311830083CF010E9406
:103500002A141092700461E0C7010E94560E8C01CB
:10351000D70115968C91811509F4BEC0C801975743
:103520008038910508F0EAC0D02EB0E10B1708F002
:1035300017C18FEF93E00E948636811111C10CE70D
:1035400012E0D11039C054E0652E9E012F5F3F4F2D
:103550005901D501E62D1D92EA95E9F74801FFEFE3
:103560008F1A9F0AC8010E9486368983811509F443
:10357000F7C0813009F08AC0680122E0C20ED11C78
:10358000C4010E948636782E8A83811509F4E8C02A
:103590008FEF870D8330F0F4C6010E9486368B834F
:1035A000811519F0C5010E945F160D5F1F4F68015C
:1035B00071C0E0E0F0E09DCF0115E4E01E0709F4E2
:1035C000CFC0C8010E9486360F5F1F4F8111F4CF14
:1035D000DA94B7CF8BEF870D833060F5480143E075
:1035E000840E911CC6010E9486368B83811509F4D6
:1035F00050C00C5F1F4F6801C4010E9486368C8347
:10360000811509F447C08B819C818130AFEF9A0707
:1036100010F0982F8827B6E07B1631F0E7E07E1691
:1036200031F00E94E92936C00E94A12933C00E94CE
:10363000C52930C0F4E07F122DC0C6010E94863635
:10364000982E680124E0C20ED11CC80103960E9486
:103650008636282F911409F483C0811509F480C09F
:103660002150330B4FEF429FC001439F900D112417
:10367000492D4150550B840F951F019758F0AFE924
:10368000BFE01197F1F700C00000F7CFC5010E941D
:103690005F16640186015DCF6801E7E5DE1AC1149B
:1036A000F1E0DF0658F567E473E08C2D0E94B51950
:1036B000892B21F5C60134E0880F991F3A95E1F76F
:1036C000FC01EA52FC4F22812130A1F520914703F1
:1036D00030914803232B91F02091490330914A0304
:1036E000232B61F020914B0330914C0340914D030B
:1036F00050914E03242B352B232B21F1D701159606
:103700002C90211409F441C00E35BCE71B0729F1A8
:103710000F35ECE71E0741F00D35FCE71F07A9F553
:10372000809139018115C9F01092390180E00E9421
:10373000511416C0223011F720914B0330914C03E5
:10374000232BE1F2FC01E552FC4F20812E7F2083E8
:103750008A529C4F0E942A14D1CF81E08093390174
:10376000809171048770811561F0D70115968C9155
:10377000811539F080914A0582FF03C082E00E94E2
:103780004E042F96E2E10C940036809139018111AC
:1037900048C0C80197558115914008F0DEC0580116
:1037A000F8EFAF22BB24A114B104D1F6F801FF2732
:1037B00094E0EE0FFF1F9A95E1F79F012A523C4FCC
:1037C0006901D70115968C91E552FC4F908180FBE1
:1037D00090F99083811509F400C20E940609909324
:1037E000590480935804F60182818F5F828380910F
:1037F000700490916D04892B838380916B04848382
:103800004681578166857785C6010E947B08D6016F
:1038100015968C9181FF5801B0925704A0925604DE
:103820009CC0280130EE431A510830906C048091FE
:103830006D04382A80916B04382A48E044165104FC
:1038400008F05EC098012770332781E090E001C046
:10385000880F2A95EAF7211409F44FC0382AD701B6
:103860008D919C910E94EF0321E030E0F90102C0AC
:10387000EE0FFF1F8A95E2F7FF87EE872091CC03BA
:103880003091CD03398728874091D4035091D503D7
:103890005D874C8723E5C22E23E0D22EA12CB12CCC
:1038A000311005C0D60112968C9181111BC0F60112
:1038B000838190E02E853F8582239323892B91F08D
:1038C0008085982F9770911101C087E038E04316EA
:1038D000510408F0A8C0211409F4A1C08695817094
:1038E0008111A6C0EFEFAE1ABE0AFFE0CF0ED11CC9
:1038F00028E0A216B104A1F61CC080953822AFCFF3
:1039000021107AC08091D4039091D503081719072C
:1039100081F41092D5031092D4031092D003109228
:10392000D1031092D2031092D3031092CF031092BE
:10393000CE038091CC039091CD03009709F429CF59
:1039400038E04316510408F032C1632D0E94BA07D3
:10395000811103C081E00E9451148091400580FFD5
:10396000ACC10E9406093C01F7018581811509F46B
:10397000B6C180913A0182FF06C040E0B30180E009
:1039800090E00E947C130431FCE71F0709F4A3C1F7
:1039900005312CE7120709F43DC103313CE7130759
:1039A00009F47EC1C80190528115904308F03CC1D2
:1039B00010925D0410925C04F7019581911509F451
:1039C0000FC310926704980130572332310508F075
:1039D00007C384E090E00E948E3690934A0580935E
:1039E0004905F801E150F047E232F10508F03EC226
:1039F000E150F94C0C9443361093D5030093D40353
:103A00000E945B0A6093D0037093D1038093D2032A
:103A10009093D3031092CF031092CE0320CF82FB5A
:103A2000882780F95DCF211409F45CCF80FF5ACF3D
:103A3000D6018D909C900815190519F4211409F4EC
:103A400051CFE885F985EC15FD0509F44BCFD6017A
:103A50001D96ED91FC91309721F08081811509F43C
:103A600041CF632DC6010E94BA07811509F43ACFF0
:103A700081E00815190509F080E082218F83811407
:103A8000910441F0811106C0EC85FD858E169F06DC
:103A900009F028CF80E00E945114D092CD03C0924B
:103AA000CC0381E08093CB038FE08A9DF0018B9D56
:103AB000F00D1124ED5AFC4F8581809352032F8124
:103AC00021110EC08114910459F0808191819C01D3
:103AD00024503109213A310508F049C00E94F70805
:103AE0008FE08A9DF0018B9DF00D1124ED5AFC4F63
:103AF000C680D780C6019A9581159F4110F440EE8B
:103B0000D42299249394C60101978F339E4708F0DD
:103B1000912C8FE08A9DD0018B9DB00D1124AD5A60
:103B2000BC4F1996ED91FC911A97309731F01B9686
:103B30006D917C9181E0099598229114A9F08FE014
:103B40008A9DF0018B9DF00D1124ED5AFC4F86816A
:103B500097810E943F038093510388E048165104E7
:103B600048F4C6010E94890A0E94810E0DC00E947D
:103B70004C0FB6CFC6010497813A910560F46C2DC5
:103B80008EEC91E00E94DD08BF81B11509F401CEF1
:103B90000E94810EE5CD0E94810EAFE3BCE9119732
:103BA000F1F700C000008C2D0E94D40EEDCFDC0197
:103BB0002D913C910217130741F4211009C0109276
:103BC000CB0380E00E945114E4CD211409F4E1CD2F
:103BD000FC01808585FDDDCDF4CFF9014485558557
:103BE00066857785C9010E947B08D60115968C9160
:103BF00081FFB3CEC6010E940D14809156049091AE
:103C000057040817190709F0A8CE1092570410920C
:103C10005604A3CE90913A01892F8E7F90FF816048
:103C200080933A010E945D1380913A0180FF45C064
:103C30000832110508F069C00E31110508F076C090
:103C4000C80104974A9788F58091400584FD2DC0EE
:103C5000D70115968C91811509F4D6C080916B041B
:103C600090916D04892B8D7F811509F464C01092A9
:103C70005D0410925C048091400581FD5CC060E0B1
:103C8000C8010E94570760E0C8010E943A0F809166
:103C90006B048D7F0E945A0982E00E944E0460CD21
:103CA00080913A01816080933A01F7018581811505
:103CB00021F010925D0410925C04D70115968C914E
:103CC000F801E851FC47E730F10508F075CEEF5DEB
:103CD000F84C0C94433680913A018E7FA1CF8091AD
:103CE0003A018F7E013E110531F0053E110531F498
:103CF00080913A018F7D80933A0196CFC80190520E
:103D00008115904308F090CF57CE0933110558F430
:103D10000D32110518F40B32110539F6809140056A
:103D200082FDC3CF95CF04361105F7CF80914005B2
:103D300083FDBBCF8DCF89E0F701AEE5B4E0019004
:103D40000D928A95E1F710926104109260048091BF
:103D50005C0490915D0408171907C9F5209140058E
:103D600025FF35C030913A0131FF02C026FF2FC038
:103D700020915A0430915B046301C21AD30A0E9455
:103D8000CA19C816D90618F580916D0481FF08C0BC
:103D900080913A01806180933A0182E00E94700430
:103DA00080916D0485FF08C080913A018062809304
:103DB0003A0180E20E94700460913A016695617058
:103DC00080915C0490915D040E943A0FC9CC80916F
:103DD0006B04D0906D04D82AD1FADD24D0F88D7F01
:103DE0000E945A0910935D0400935C0470925B0476
:103DF00060925A04DD0C6894D2F890913A01997F50
:103E0000D92AD0923A0148CF40E0B301C8010E94BC
:103E10007C13A6CC06E221EE41EE6AE17CE70E942B
:103E2000E8199ECC07E225EE45EE6BE17CE7F7CF83
:103E300006E221EE40EE68E17CE7F1CF07E225EEF5
:103E400044EE69E17CE7EBCF06E221EE42EE6CE165
:103E50007CE7E5CF07E225EE46EE6DE17CE7DFCFBC
:103E600008E221E045EE6EE17CE7D9CF809149057B
:103E70008160809349056091490570914A0584E00D
:103E800090E00E94C2360E94DF0F6ACC80914A0502
:103E9000886080934A05EFCF809149058260E9CF21
:103EA000809149058460E5CF809149058860E1CF24
:103EB00080914A058160EDCF80914A058260E9CF0B
:103EC000809149058061D5CF809149058062D1CF2D
:103ED000809149058064CDCF0E94DF0F8091490514
:103EE0008068C7CF809149058C60C3CF80914A0517
:103EF0008360CFCF809149058E7FBBCF80914A05EB
:103F0000877FC7CF809149058D7FB3CF80914905C9
:103F10008B7FAFCF80914905877FABCF80914A05DA
:103F20008E7FB7CF80914A058D7FB3CF80914905B1
:103F30008F7E9FCF809149058F7D9BCF80914905D2
:103F40008F7B97CF0E94DF0F809149058F7791CFAC
:103F500080914905837F8DCF80914A058C7F99CFD1
:103F600080914905992782FF939590FB82F990FBF8
:103F700083F97FCF80914A05982F909590FB80F927
:103F800090FB81F986CF90914905892F8F7B96FF11
:103F900080646FCF0E94DF0F90914905892F97FBB6
:103FA00087F9805866CF61E08EE090E00E94A436E9
:103FB00062CF60E0F9CF90914905892F8F7E94FF01
:103FC000806157CF90914905892F8E7F90FF816046
:103FD00050CF90914A05892F877F93FF886059CFF2
:103FE0000631FCE71F07D1F580916D0430913F0544
:103FF00030FF04C0282F2474211124C0282F2A7ACE
:1040000031FF04C0482F4171411120E032FF04C04C
:10401000482F4878411120E033FF03C0827281119C
:1040200020E0911589F081E0211101C080E08093AA
:10403000680465E3211101C069E28EEC91E00E9401
:10404000DD08A6CD20E0DCCF80916804811521F049
:1040500085E30E94F7089CCD89E2FBCF07372CE768
:104060001207F9F008373CE7130731F19801205E99
:1040700032452032310528F591113BC00F7181E0A6
:1040800090E0AC0102C0440F551F0A95E2F78A0187
:10409000642F83E090E00E94A436802F0E94970353
:1040A0005FCB81E0911551F00E949D0343E062E0F7
:1040B00081E00E94230454CB82E0F4CF0E94A90344
:1040C000F5CF9115B1F00A355CE7150709F483C007
:1040D00008F05AC001309CE7190709F47AC0033090
:1040E000ACE71A0709F46FC00115BCE71B0709F418
:1040F0005DC0F70187819085009709F470C00E9428
:104100007305182FD92E86E0F701DE011196019074
:104110000D928A95E1F7F701C580968092948FE021
:104120009822809171048770811501F18C2CC11443
:10413000F1F0892F807F803461F080E2810F883038
:10414000A8F0892F807E803221F4123078F091140B
:1041500069F080914A0582FF09C082E00E944E0406
:10416000809171048770882483948111812C8D2D16
:1041700082958F70A82EB12C8C3008F061C0F501AB
:10418000E85DF84C0C9443360B35ECE71E0729F13B
:1041900080914A05002482FF0394802D0C35FCE7B2
:1041A0001F0709F0A6CF0E94F10CA3CF0E94DF0FDA
:1041B0002FEF34E34CE0215030404040E1F700C0A5
:1041C00000000E94CC0A6FEF7FEF80E090E00E9439
:1041D000C2360E94061081E0E6CF80E0E4CF858100
:1041E000C080D180811569F0C6010E94EA0D182FA8
:1041F000682FC6010E94B903B601812F0E94CD0D20
:104200007ECFC6010E94EF03182FF6CF0D2D0F7041
:10421000F0E1DF1610F00295007FC11409F44AC0E6
:10422000011559F080E2810F883010F011113CC067
:10423000802F0E946A040E94810E812F0E94D40E5A
:1042400028E0A21AB10834E0A316B10418F40E94C1
:104250008008812C812F9D2D0E947303811541F0D0
:10426000C11409F411C2911409F405C210924D054C
:104270008114A9F08091710480FD11C0F7011582AD
:104280008695869586950E949D03C7010E944C1ACB
:10429000809171048695869586950E94A90360E0B9
:1042A000C7010E94560E6DCA80917004802B8093C6
:1042B0007004C1CF812F0E944C0F011509F280E2DA
:1042C000810F883010F0111104C0802F0E947004FB
:1042D00006C00095809170048023809370040E9432
:1042E000810EAECF0D2D0F708D2D807F803211F09D
:1042F0000295007F111549F0113009F473C0C11403
:1043000009F47FC09114D9F098CF80914A0582FDBD
:1043100012C0C11449F0011529F0802F0E946A04CF
:104320000E94810E80E08ACF80E00E944C0F011530
:1043300009F486CFCACFC11491F1911004C0802F27
:104340000E94BC0F7DCF41E0941211C070906B04AD
:10435000802F8721081709F473CF0E9406099093D4
:104360006A0480936904702A70926B0469CF80910B
:104370004105823008F464CF981262CF802F0E94EA
:10438000BC0F802F0E94440980916C04902F9823C9
:10439000091709F455CF802B80936C0451CF9110ED
:1043A00012C0802F0E94C30F802F0E944409809169
:1043B0006C04902F9823911509F442CF009508239F
:1043C00000936C043DCF80914105823008F438CFD2
:1043D00051E0951235CF80916D048023811509F449
:1043E0002FCFDFCF80914705C11421F0891508F444
:1043F00027CFA5CF981608F023CF802F0E94C30F98
:104400001FCF9114D1F38091450590914605193342
:1044100021F080914305909144050E944A0C812F20
:104420000E944C0F0DCF8D2D86958695837081153A
:1044300069F0813009F004CF812F9D2D9370C11058
:1044400002C080E090E00E94B708FACE812F9D2D37
:104450009370C11002C080E090E00E949108F0CEFD
:104460006C2D812F0E949609EBCE8D2D83708111CA
:1044700033C0C110E5CE412F429546954770440F99
:10448000440F812F8F70042E01C0880F0A94EAF721
:10449000212F207114FF07C02FE030E001C0220F50
:1044A0004A95EAF720953D2D369536953370323092
:1044B00071F0333051F040912305313029F0822BD7
:1044C00084230E949703BCCE842B822BFACF822BAD
:1044D000909123058927F5CFC11459F1D0FEB0CEB4
:1044E000412F429546954770440F440F812F8F709E
:1044F000042E01C0880F0A94EAF7212F207114FFBF
:1045000007C02FE030E001C0220F4A95EAF720955E
:104510003D2D369536953370323089F0333069F061
:1045200040912405313041F0822B84230E949A036C
:1045300087CE8230A8F684CE842B822BF7CF822BB5
:10454000909124058927F2CF0D2D0F70C11429F009
:10455000802F0E949D03812FF3CE812F0E94C30FD5
:10456000802F0E94A9036CCE123F71F160F4103FBE
:10457000B9F0113F81F0C11409F478C091105DCEFB
:104580008D2D8F7125C0133F31F1143FA1F780911C
:104590004A0582FD2CC08D2D8F71C11411F318C0F6
:1045A00080914705C11461F0981608F049CE2D2D71
:1045B0002F7181E090E001C0880F2A95EAF7C0CF03
:1045C000891508F43DCEF3CF8D2D8F71C110C9CF61
:1045D0000E949D0335CE80E0C11409F4A7CF81E08D
:1045E0009D2D9F7101C0880F9A95EAF79FCF80910A
:1045F0004105823048F1C114C9F09091710497705F
:10460000943059F410927104109273041092720451
:104610008D2D8F710E94A9031ACE63E0981608F0C1
:1046200016CE8D2D8F710E942C0911CE981640F058
:1046300010927104109273041092720464E0F1CF2E
:1046400081E00E944E0403CEC11431F063E08D2D51
:104650008F710E942C09F4CD81E00E944E0482E00B
:10466000981608F4EDCD0E944E04EACD9110CBCE01
:104670008D2D8F7176CF80916F0480936E04809121
:104680006D0480936F04F4CD40E060E089819A81ED
:104690000E94380E8A879B8700916D04911429F03F
:1046A00010924D0500936F04E3CD80914B059091DE
:1046B0004C05AA85BB85A817B907A1F780914205CB
:1046C00083FFEECF80914D05811551F380916E04EB
:1046D0000E94BC0F812F0E94AF0F80916E040E9438
:1046E000C30FDECFA0E0B0E0E8E7F3E20C94EF35D3
:1046F00080912C03803108F049C080912B038115F3
:1047000009F444C0C091DD0289E0D82E8091DC021A
:104710008C17E1F1EC2EF12CDC9EE0011124FE015E
:10472000E252FD4F84818115B1F19181809127037F
:10473000981331C090818091260398132CC08581F5
:10474000811129C00281138180912803909129034E
:10475000081B190B60E086E293E00E94560E0E944F
:10476000CA1908171907B8F480912C038F7080615B
:1047700080932C03CC51DD4F88818F7080618883BA
:1047800086E293E00E944C1A0E944404CDB7DEB743
:10479000E7E00C940B36E7012196C770B7CFAFE086
:1047A000B0E0E5EDF3E20C94E7358C0186E0F8012A
:1047B000DE011A9601900D928A95E1F7D8011596BF
:1047C0006C90159714965C9086E2A82E83E0B82E24
:1047D00080912A03811118C0511499F0611409F4D1
:1047E000CBC1C8010E94240E811509F4C5C189E01E
:1047F000F801A6E2B3E001900D928A95E1F70E94DC
:104800007223FF24F39451C0F801C0807180E280CC
:10481000F38060E086E293E00E94560ED0902B0376
:1048200080912803909129034701881A990A60E032
:1048300086E293E0D11409F444C10E94560E0E940E
:10484000CA198816990608F0F7C05114D1F2809160
:104850002703D80111969C91B0902C03B0E1BB16B0
:1048600008F0A1C0F62C981325C090912603F801FA
:10487000808198131FC020912D0330912E038781D2
:10488000908528173907B1F4611078C08B2D8F708F
:10489000806180932C0386E293E00E944C1A809101
:1048A0002C03D80116968C93F12C8F2D2F96EFE0C8
:1048B0000C940336611062C0E091DD028091DC024D
:1048C000AE2F99E0A81302C099E02AC02A2F30E049
:1048D0009A9FD0011124A252BD4F11964C9111976D
:1048E000741207C04C91C41204C015964C9141112A
:1048F0004DC1D9011196A770E5CF2E2F30E09E9FB4
:10490000F0011124E252FD4F4181741206C0408132
:10491000C41203C045814111C7CFF9013196E77038
:104920008E13EBCF8A859B850E94150E292F229529
:104930002F70903448F02A5F2F702230C8F0C801E1
:104940000E944C1AFD2CB1CF9F70223038F0911587
:1049500051F0F8019681903130F4A7CF911519F0FC
:10496000811509F4A2CF805E883008F49ECFE7CF8E
:10497000803F08F49ACF815F8330F7CF80912C037A
:10498000816080932C038091420581FD8DCF86E26A
:1049900093E00E944C1A89E0E6E2F3E0DF011D9209
:1049A0008A95E9F781CF981321C090912603D80109
:1049B0008C9198131BC020912D0330912E031796D4
:1049C0008D919C9118972817390781F461100EC0BA
:1049D0001696BC92C8010E944C1A89E0F801A6E222
:1049E000B3E001900D928A95E1F70BCFC8010E94C8
:1049F000240E811509F4C0C0611409F4BDC0809172
:104A00002C03803208F4F3CE809126039091270383
:104A10009A838983FC82EB8280912A038D831E8294
:104A2000BF8280912D0390912E0399878887CE01B4
:104A300001960E944C1ADBCED0902C03B0E1DB161D
:104A400008F4A5CF511409F4DCCE90912703F801A6
:104A5000818198131AC0909126038081981315C004
:104A600020912D0330912E038781908528173907D7
:104A700061F461100AC0D682C8010E944C1A89E014
:104A8000D5011D928A95E9F7BCCEC8010E94240E7B
:104A9000811509F471C0611409F46EC080912C0372
:104AA000803208F4A4CE80912603909127039A8344
:104AB0008983FC82EB8280912A038D831E82DF82B0
:104AC000B0CF0E94560E0E94CA198816990608F0A7
:104AD00057C0511409F495CE611409F44DC090915A
:104AE0002703F801818198133DC0909126038081AE
:104AF000981338C020912D0330912E038781908523
:104B00002817390779F5C0902803D090290360E071
:104B100086E293E00E94560E8091420582FD5DCFB1
:104B2000EC18FD0880913D0590913E05E816F906C8
:104B300008F053CF80912C0380FD4FCF803108F4D3
:104B40004CCFD80116968C931697982F907F903F54
:104B500009F440CF982F907F905F8F70892B169625
:104B60008C9338CFC8010E94240E811140CE8091D1
:104B70002C03816080932C03C8010E944C1A41CE03
:104B800089E0F50111928A95E9F78ECE9091420560
:104B900090FF9ACEFCCEA2E1B0E0E1EDF5E20C94FC
:104BA000F2350A871B872C873D874E875F87688B86
:104BB000798B8A8BCE010A960E94CF23811128C05F
:104BC0002091DC023091DD0289E0FE013A96DE019F
:104BD000119601900D928A95E1F78E858115C1F0AD
:104BE000822F90E001968770992738171906D9F01F
:104BF00099E0929FD0011124A252BD4FFE0131963F
:104C000001900D929A95E1F78093DC020E94440492
:104C100019E08091DD029091DC02891312C0629646
:104C2000E4E00C940E360E94DF0F1092DC0210922A
:104C3000DD0289E0E6E2F3E0DF011D928A95E9F703
:104C4000E7CF189FC001112482529D4F0E94CF23AD
:104C5000811529F38091DD0290E0019687709927F4
:104C60008093DD02D6CFEF92FF920F931F93CF93E5
:104C7000DF9380912005E091FE01CDE0811131C0EC
:104C8000CDB7DEB7E6E00C940C36D1E0DE0FD09362
:104C9000FE01EE2EF12CCE9FF0011124E854FB4FC3
:104CA00084818115E9F087819085892B21F48185A4
:104CB0009285019659F400811181228133814481CA
:104CC00055816681778180850E94CB25CE9DF0013C
:104CD000CF9DF00D1124E854FB4F14821092700404
:104CE000ED2F80912005E81780F210922005109298
:104CF000FE01C6CFA4E0B0E0E0E8F6E20C94E535B2
:104D00002091B704298397E0992EEE24E394F12CA7
:104D10003DE0332E44E0542E662463948091B60423
:104D20009981891308C00E9433260E947D0724962A
:104D3000E1E10C9401367981672F70E07C836B830D
:104D4000FB01EE0FFF1FE455FB4F80819181989E80
:104D5000D001999EB00D1124FD01EC58FB4FFA8350
:104D6000E983248121115BC070902005E8EBF4E019
:104D700040E050E0812C471508F04FC0A384B48474
:104D8000A981BA81CD90DC900FEF1FEF412C242D2B
:104D900030E0B601640D711D640D711DDB016D9174
:104DA0007C916115710539F0A616B70609F09801D6
:104DB00043948901ECCF0F3F1007D1F1B701002ECA
:104DC00001C0660F0A94EAF7862AB701042C02C0D4
:104DD000660F771F0A94E2F79B0121503109821672
:104DE000130629F5349EF001359EF00D1124E85488
:104DF000FB4F989ED001999EB00D1124AC58BB4F2B
:104E000012962D913C9113973087278354821082FC
:104E100011829287818715966C920E948E078B81F2
:104E20009C8101969A8389838370898377CF1482CA
:104E30004F5F5F4F3D969FCF109222051092210544
:104E400010923B018091B6048093B7040E947D07C5
:104E50000E9433260895AEE1B0E0E1E3F7E20C945E
:104E6000E4354B8B5C8B6D8B7E8B8F8B692F988F92
:104E7000192F811509F475C040E08B899C890E9427
:104E8000380E7C01111549F010924D0590934C0598
:104E900080934B05109270040AC080914B0590914D
:104EA0004C058E159F0519F481E080934D05188AF5
:104EB000198A1A8A86E0FE017396DE011A9601901D
:104EC0000D928A95E1F780914A0582FF21C0809179
:104ED000270590912805892BD9F00E940609209179
:104EE000720430917304821B930B2091270530913B
:104EF00028058217930738F08091710482FD03C062
:104F000082E00E944E040E94120981110E947804DE
:104F10008E858115D1F061E0CE010A960E94560E71
:104F200061E0CE010A960E94560E61E0CE010A961B
:104F30000E94560E6C0180352CE79207B1F48F85E4
:104F4000811541F181E080933B010A851B852C8509
:104F50003D854E855F85688979898A890E94CB2540
:104F6000D6C0911509F4A3CF95CF81354CE79407AE
:104F700031F48F85811571F00E941C27E6CF8235B0
:104F80009C4741F48F85811529F080913B01811167
:104F9000F3CFD8CFE4E7EE2EE4E0FE2E512CA12C87
:104FA000B12C4F84D7016D917C9122242A94332413
:104FB0003A9480E0282F30E0FB01E80FF11DE80F64
:104FC000F11D408151814115510539F0C416D506B6
:104FD00009F091018F5F1901EDCF10E0BFEF2B16A3
:104FE0003B0609F452C0F701448110913B01411185
:104FF00010E0D70115967C90159716962C91169770
:10500000411409F409C1111509F406C180903B054A
:1050100090903C05711015C041E050E0022C01C099
:10502000440F0A94EAF7242B16962C932091B4048B
:105030003091B5042815390520F49092B50480927A
:10504000B40421E030E0F90102C0EE0FFF1F8A95A1
:10505000E2F7CF010197D70116962C912817190670
:10506000A1F460902105709022056114710409F487
:1050700052C00E940609861997098816990608F0F9
:105080004AC081E0F701848311E0512AFFEFAF1A93
:10509000BF0A27E0E20EF11C48E0A416B10409F0B3
:1050A00080CF411409F414C1511409F411C10E94B4
:1050B0000609909322058093210580912005883070
:1050C00030F591E0980F9093200599E0FE013A9613
:1050D000DE01119601900D929A95E1F75DE0859FB2
:1050E000C001112488549B4F29E0FE013196DC0158
:1050F00001900D922A95E1F72FEF3FEFDC011A9610
:105100003C932E9319971C96DC92CE921B976E9629
:10511000E2E10C9400362091B7048091B604922FFE
:10512000E0E0F0E037E061E0281709F448C0422FE2
:1051300050E0DA01AA0FBB1FA455BB4F8D909C9085
:105140009A8E898E389DD001399DB00D1124AC58AE
:10515000BB4F8D909C909E8E8D8E812C70E0912CFB
:10516000AD8DBE8DA90DB11DA90DB11D6D907C90A9
:1051700061147104E1F0D7010D90BC91A02DBC8F9A
:10518000AB8F70E007C001E06A167B0609F000E013
:10519000802A7F5FAB8DBC8DA70FB11DA70FB11DFE
:1051A0000D90BC91A02D109771F79394D9CF8114D5
:1051B00081F17915C0F421E0F7012483F701909380
:1051C000B704EE15FF0509F460CF90E0FC01EE0F87
:1051D000FF1FE455FB4FB182A0820196837099278F
:1051E0008093B60452CF898C9A8C389DF001399DFA
:1051F000F00D1124EC58FB4F6483EE15FF05F1F21E
:10520000291302C09F5F93704F5F5F4F242F23705D
:105210008BCFE0E0F0E0F8CF30E0711021C061E02A
:1052200070E002C0660F771F8A95E2F7CB01019705
:105230002817390779F010E081E090E0022C01C0D6
:10524000880F0A94EAF7982F9095F70186818923B1
:1052500086831BCF411581F3C5010E948E07EBCFDA
:10526000A901022C02C0559547950A94E2F7C9019D
:10527000019782239323892B41F540FF26C0D70154
:1052800012968D919C91892BD9F087E0FE01319681
:10529000DF011D928A95E9F70E9406099C018B8324
:1052A0009C8384E08D83F70192818381792F988795
:1052B000898709811A8144E05E816F810E94CB2534
:1052C000D70115961C92172DB7CF142F1170B4CF9C
:1052D0009091B7048091B604981739F00E947A260D
:1052E000B1E05B1609F413CF30CE0E943326109242
:1052F0002205109221050E947D07F2CFA6E0B0E0C2
:10530000E4E8F9E20C94F2350E9406098C018091E0
:10531000D0029091D1028017910779F019821A82F8
:105320000E940609BC0149815A8180E090E00E94F8
:105330002B271093D1020093D0022696E4E00C9420
:105340000E36A6E0B0E0E7EAF9E20C94F4359C01F1
:105350009093CD028093CC02211580E2380738F477
:10536000C9010E94240F2696E2E00C94103680EFCB
:1053700089838A830E9406098160BC0149815A8120
:1053800081E091E00E942B27EECFA6E0B0E0EBECAD
:10539000F9E20C94F4359C019093CD028093CC02F9
:1053A000211580E2380738F4C9010E947F0F269644
:1053B000E2E00C94103680EF89838A830E9406090C
:1053C0008160BC0149815A8181E090E00E942B27D5
:1053D000EECFCF93DF93D82FC92F0E94A1298091C0
:1053E0004305909144050E944A0C8D2F9C2F0E94EA
:1053F000C529DF91CF9108950F931F93CF93DF932A
:105400008C01862F67E473E00E94B519892BA9F4FB
:10541000C0914703D0914803209779F0F801828129
:10542000833051F4CE010E94E929CE010E94E9297E
:10543000CE010E94E92901C0D8F7DF91CF911F91D9
:105440000F9108950F931F93CF93DF938C01EB017E
:1054500067E473E08C2F0E94B519892B09F05AC0BC
:10546000FE01FF27D80112968C911297E059FD4F4B
:105470008130A9F415968C9182FD51C080FF4FC0F8
:1054800082E080838091490390914A030097B9F4A8
:1054900080914703909148030097E1F110C082305A
:1054A000B9F515968C9182FD28C080FD0BC083E074
:1054B000808380914B0390914C03009701F10E94EF
:1054C000A12928C084E0808380914D0390914E03F0
:1054D0000097A9F78091470390914803009711F135
:1054E0000E94E9298091490390914A03009739F776
:1054F0008091470390914803E2CF85E080838091BB
:10550000470390914803009729F00E94E929F0CFC2
:1055100086E08083DF91CF911F910F91089581E004
:105520008083B6CF8091490390914A03B5CF0F9302
:105530001F93CF93DF938C01EB0167E473E08C2F13
:105540000E94B519892BA1F48091430590914405DF
:105550000E944A0CDD27C059DD4F8881F801128274
:1055600018828330F1F048F4813059F0823081F0B4
:10557000DF91CF911F910F9108958430B9F085305C
:10558000B9F78091470390914803009789F306C0CB
:105590008091490390914A03009799F30E94C5298D
:1055A000E7CF80914B0390914C03F6CF80914D0350
:1055B00090914E03009791F7209147033091480353
:1055C0008091490390914A0321153105F1F200972A
:1055D00029F7C901E3CFCDB7DEB7AA970FB6F89484
:1055E000DEBF0FBECDBF85B7806885BF85B7806839
:1055F00085BF84B7877F84BF0FB6F894A895809144
:105600006000886180936000109260000FBE80E8A7
:1056100090E00FB6F89480936100909361000FBE04
:1056200081E08093070186E796E09093CD01809317
:10563000CC010E94A0060E94F2180E9436190E9416
:10564000780D0E94870B0E94EF0B8091E20084602E
:105650008093E20078948091A802811599F080915E
:10566000E9001091EC008F70179511271795182BF2
:105670001092E9008091E80083FD0E948D101F7058
:105680001093E90082E084BD93E095BD9AEF97BD49
:1056900080936E001092C8021092C9021092CA0242
:1056A0001092CB020E94680E811102C00E94E21883
:1056B00088EC90E02091E30027FD0EC0AFE3BCE949
:1056C0001197F1F700C000000197A1F70E94870B26
:1056D0001092A80280E001C081E08093C60280930E
:1056E000C7028093080181110E94823480910801D1
:1056F0008091080191E08927880F880F80938102AB
:1057000094E0981B9093800281E30E94780682E3E4
:105710000E94780683E30E94780686E30E9478065A
:1057200008E511E07DE5E72E71E0F72EF8018191A3
:105730008F018F3F11F00E947806E016F106B1F755
:1057400088E0EEE9F2E0DF01282F1D922A95E9F7C3
:10575000E8E7F2E0DF011D928A95E9F780E090E04A
:105760000E948E36853E9E4F21F40E94680E811164
:1057700063C065EE7EEF80E090E00E94C23660E09C
:1057800082E090E00E94A43681E08093230561E0EE
:1057900083E090E00E94A43660E074E184E090E051
:1057A0000E94C23660E086E090E00E94A43660E08D
:1057B00087E090E00E94A43640E050E0BA0188E023
:1057C00090E00E94B63660E083E290E00E94A4364A
:1057D00060E08CE090E00E94A43660E08DE090E014
:1057E0000E94A43619821A821B821C821D821E828C
:1057F0001F82188648E050E067E170E0CE01019614
:105800000E94943640E050E0BA018FE190E00E949F
:10581000B63680E00E943F0D0E94E21840E050E062
:10582000BA018FE090E00E94B63640E050E0BA0145
:1058300083E190E00E94B63682E090E00E948636D6
:105840008093840284E090E00E948E3690934A0513
:10585000809349050E94E014EFEFF6E721E0E15064
:10586000F0402040E1F700C000000E94E014809169
:105870009E0280FF08C06FEF7FEF80E090E00E9403
:10588000C2360E94CC0A83E090E00E9486360E94D5
:1058900097038091C602811102C00E94853489E07D
:1058A00091E09093D3028093D2028091A802853038
:1058B00049F48091A802853009F452C00E94DF0F9C
:1058C0000E9480080E94E01405E812E06EE9E62ECE
:1058D00062E0F62ED701F80191918D912DE832E02A
:1058E0002E173F0709F470C09817B1F36090C602F5
:1058F000B12CD701AD907D01F80181918F018A15FE
:1059000041F1782E7A24912C88248394872D882144
:105910008115C1F06114B1F09982BA820E94060922
:105920009C838B83F1E0FD8391E08A2D8821811196
:1059300001C090E09E8349815A816B817C818D8179
:105940000E942B279394880C25E09212DFCFF80158
:10595000A292B39438E0B312CCCF0E94670A38C049
:105960008091A802843021F11092820288E190E0B7
:10597000A0E40FB6F894A895809360000FBEA093A2
:10598000600083B7817F846083BF83B7816083BFFA
:105990007894889583B78E7F83BF0FB6F894A895C7
:1059A00080916000886180936000109260000FBE5B
:1059B0000E94E014EEE9F2E08191811183C5B2E02A
:1059C000E63AFB07C9F775CF981390CF0E947E295E
:1059D0008091C602811509F4AFC00091CE031091E9
:1059E000CF030115110591F18090910290909202E0
:1059F000A0909302B09094020E945B0A6819790902
:105A00008A099B0980908D0290908E02A0908F024F
:105A1000B0909002681579058A059B05B8F0C80119
:105A20000E94240F1092CF031092CE031092910285
:105A300010929202109293021092940210928D0290
:105A400010928E0210928F0210929002E0905604F3
:105A5000F0905704E114F10439F1A0905804B0908B
:105A600059040E9406098C010A191B09C7010E94EA
:105A7000CA1980179107C0F4209156043091570439
:105A8000C9019927287F3327232B09F0BAC054E096
:105A9000880F991F5A95E1F78A529C4FDC011596A1
:105AA0002C9122FF0E942A1480913B01811519F14B
:105AB000009121051091220501151105E1F00E94C8
:105AC0000609801B910B2091B4043091B50428176E
:105AD000390788F49091B7048091B604981709F4B7
